{
  "contractName": "Bank",
  "abi": [
    {
      "constant": true,
      "inputs": [],
      "name": "localAddress",
      "outputs": [
        {
          "name": "",
          "type": "string"
        }
      ],
      "payable": false,
      "stateMutability": "view",
      "type": "function"
    },
    {
      "constant": false,
      "inputs": [],
      "name": "activate",
      "outputs": [],
      "payable": false,
      "stateMutability": "nonpayable",
      "type": "function"
    },
    {
      "constant": true,
      "inputs": [],
      "name": "isActive",
      "outputs": [
        {
          "name": "",
          "type": "bool"
        }
      ],
      "payable": false,
      "stateMutability": "view",
      "type": "function"
    },
    {
      "constant": true,
      "inputs": [],
      "name": "participantName",
      "outputs": [
        {
          "name": "",
          "type": "string"
        }
      ],
      "payable": false,
      "stateMutability": "view",
      "type": "function"
    },
    {
      "constant": true,
      "inputs": [],
      "name": "bankAccount",
      "outputs": [
        {
          "name": "",
          "type": "address"
        }
      ],
      "payable": false,
      "stateMutability": "view",
      "type": "function"
    },
    {
      "constant": true,
      "inputs": [],
      "name": "getData",
      "outputs": [
        {
          "name": "_name",
          "type": "string"
        },
        {
          "name": "_localAddress",
          "type": "string"
        },
        {
          "name": "_isActive",
          "type": "bool"
        }
      ],
      "payable": false,
      "stateMutability": "view",
      "type": "function"
    },
    {
      "constant": false,
      "inputs": [],
      "name": "deactivate",
      "outputs": [],
      "payable": false,
      "stateMutability": "nonpayable",
      "type": "function"
    },
    {
      "constant": false,
      "inputs": [
        {
          "name": "_name",
          "type": "string"
        },
        {
          "name": "_localAddress",
          "type": "string"
        }
      ],
      "name": "populateData",
      "outputs": [],
      "payable": false,
      "stateMutability": "nonpayable",
      "type": "function"
    },
    {
      "inputs": [],
      "payable": false,
      "stateMutability": "nonpayable",
      "type": "constructor"
    },
    {
      "anonymous": false,
      "inputs": [
        {
          "indexed": false,
          "name": "theContractAddress",
          "type": "address"
        },
        {
          "indexed": false,
          "name": "theSenderAddress",
          "type": "address"
        },
        {
          "indexed": false,
          "name": "timestamp",
          "type": "uint256"
        }
      ],
      "name": "NewBankCreated",
      "type": "event"
    },
    {
      "anonymous": false,
      "inputs": [
        {
          "indexed": false,
          "name": "name",
          "type": "string"
        },
        {
          "indexed": false,
          "name": "theAccount",
          "type": "address"
        },
        {
          "indexed": false,
          "name": "theContractAddress",
          "type": "address"
        },
        {
          "indexed": false,
          "name": "theSenderAddress",
          "type": "address"
        },
        {
          "indexed": false,
          "name": "timestamp",
          "type": "uint256"
        }
      ],
      "name": "BankDataPopulated",
      "type": "event"
    },
    {
      "constant": true,
      "inputs": [],
      "name": "isBank",
      "outputs": [
        {
          "name": "",
          "type": "bool"
        }
      ],
      "payable": false,
      "stateMutability": "pure",
      "type": "function"
    },
    {
      "constant": false,
      "inputs": [
        {
          "name": "_bankAccount",
          "type": "address"
        },
        {
          "name": "_name",
          "type": "string"
        },
        {
          "name": "_localAddress",
          "type": "string"
        }
      ],
      "name": "populateBankData",
      "outputs": [],
      "payable": false,
      "stateMutability": "nonpayable",
      "type": "function"
    }
  ],
  "bytecode": "0x60806040526000600260006101000a81548160ff02191690831515021790555034801561002b57600080fd5b507f80529267470a8cf238458a8261b192a5f922d8bd71140e39aa41c5bd973336e1303342604051808473ffffffffffffffffffffffffffffffffffffffff1673ffffffffffffffffffffffffffffffffffffffff1681526020018373ffffffffffffffffffffffffffffffffffffffff1673ffffffffffffffffffffffffffffffffffffffff168152602001828152602001935050505060405180910390a1610b10806100da6000396000f3006080604052600436106100a4576000357c0100000000000000000000000000000000000000000000000000000000900463ffffffff16806308db16cb146100a95780630f15f4c014610139578063164be8581461015057806322f3e2d41461017f5780632ca01a1e146101ae578063377a0f531461023e5780633bc5de301461029557806351b42b001461039c57806395f2d098146103b3578063f6037add14610462575b600080fd5b3480156100b557600080fd5b506100be610531565b6040518080602001828103825283818151815260200191508051906020019080838360005b838110156100fe5780820151818401526020810190506100e3565b50505050905090810190601f16801561012b5780820380516001836020036101000a031916815260200191505b509250505060405180910390f35b34801561014557600080fd5b5061014e6105cf565b005b34801561015c57600080fd5b506101656105ec565b604051808215151515815260200191505060405180910390f35b34801561018b57600080fd5b506101946105f5565b604051808215151515815260200191505060405180910390f35b3480156101ba57600080fd5b506101c3610608565b6040518080602001828103825283818151815260200191508051906020019080838360005b838110156102035780820151818401526020810190506101e8565b50505050905090810190601f1680156102305780820380516001836020036101000a031916815260200191505b509250505060405180910390f35b34801561024a57600080fd5b506102536106a6565b604051808273ffffffffffffffffffffffffffffffffffffffff1673ffffffffffffffffffffffffffffffffffffffff16815260200191505060405180910390f35b3480156102a157600080fd5b506102aa6106cc565b60405180806020018060200184151515158152602001838103835286818151815260200191508051906020019080838360005b838110156102f85780820151818401526020810190506102dd565b50505050905090810190601f1680156103255780820380516001836020036101000a031916815260200191505b50838103825285818151815260200191508051906020019080838360005b8381101561035e578082015181840152602081019050610343565b50505050905090810190601f16801561038b5780820380516001836020036101000a031916815260200191505b509550505050505060405180910390f35b3480156103a857600080fd5b506103b1610821565b005b3480156103bf57600080fd5b50610460600480360381019080803590602001908201803590602001908080601f0160208091040260200160405190810160405280939291908181526020018383808284378201915050505050509192919290803590602001908201803590602001908080601f016020809104026020016040519081016040528093929190818152602001838380828437820191505050505050919291929050505061083e565b005b34801561046e57600080fd5b5061052f600480360381019080803573ffffffffffffffffffffffffffffffffffffffff169060200190929190803590602001908201803590602001908080601f0160208091040260200160405190810160405280939291908181526020018383808284378201915050505050509192919290803590602001908201803590602001908080601f0160208091040260200160405190810160405280939291908181526020018383808284378201915050505050509192919290505050610870565b005b60018054600181600116156101000203166002900480601f0160208091040260200160405190810160405280929190818152602001828054600181600116156101000203166002900480156105c75780601f1061059c576101008083540402835291602001916105c7565b820191906000526020600020905b8154815290600101906020018083116105aa57829003601f168201915b505050505081565b6001600260006101000a81548160ff021916908315150217905550565b60006001905090565b600260009054906101000a900460ff1681565b60008054600181600116156101000203166002900480601f01602080910402602001604051908101604052809291908181526020018280546001816001161561010002031660029004801561069e5780601f106106735761010080835404028352916020019161069e565b820191906000526020600020905b81548152906001019060200180831161068157829003601f168201915b505050505081565b600260019054906101000a900473ffffffffffffffffffffffffffffffffffffffff1681565b6060806000808054600181600116156101000203166002900480601f0160208091040260200160405190810160405280929190818152602001828054600181600116156101000203166002900480156107665780601f1061073b57610100808354040283529160200191610766565b820191906000526020600020905b81548152906001019060200180831161074957829003601f168201915b5050505050925060018054600181600116156101000203166002900480601f0160208091040260200160405190810160405280929190818152602001828054600181600116156101000203166002900480156108035780601f106107d857610100808354040283529160200191610803565b820191906000526020600020905b8154815290600101906020018083116107e657829003601f168201915b50505050509150600260009054906101000a900460ff169050909192565b6000600260006101000a81548160ff021916908315150217905550565b8160009080519060200190610854929190610a3f565b50806001908051906020019061086b929190610a3f565b505050565b82600260016101000a81548173ffffffffffffffffffffffffffffffffffffffff021916908373ffffffffffffffffffffffffffffffffffffffff16021790555081600090805190602001906108c7929190610a3f565b5080600190805190602001906108de929190610a3f565b506001600260006101000a81548160ff0219169083151502179055507f847e63e3ad3bc89f983e6f08517f693e4d747a401f506f2a165b4499edf87e04828430334260405180806020018673ffffffffffffffffffffffffffffffffffffffff1673ffffffffffffffffffffffffffffffffffffffff1681526020018573ffffffffffffffffffffffffffffffffffffffff1673ffffffffffffffffffffffffffffffffffffffff1681526020018473ffffffffffffffffffffffffffffffffffffffff1673ffffffffffffffffffffffffffffffffffffffff168152602001838152602001828103825287818151815260200191508051906020019080838360005b838110156109fc5780820151818401526020810190506109e1565b50505050905090810190601f168015610a295780820380516001836020036101000a031916815260200191505b50965050505050505060405180910390a1505050565b828054600181600116156101000203166002900490600052602060002090601f016020900481019282601f10610a8057805160ff1916838001178555610aae565b82800160010185558215610aae579182015b82811115610aad578251825591602001919060010190610a92565b5b509050610abb9190610abf565b5090565b610ae191905b80821115610add576000816000905550600101610ac5565b5090565b905600a165627a7a72305820c930c2803a07ed5cac98a1deed4d069ebeccbd7a646619996b27ad0b25fc87760029",
  "source": "pragma solidity ^0.4.24;\n\nimport \"./ParticipantData.sol\";\n\ncontract Bank is ParticipantData{\n\n    address public bankAccount;\n\n    event NewBankCreated(address theContractAddress, address theSenderAddress, uint timestamp);\n    event BankDataPopulated(string name, address theAccount, address theContractAddress, address theSenderAddress, uint timestamp);\n\n    constructor() public {\n        emit NewBankCreated(this, msg.sender, now);\n    }\n\n    function isBank() pure public returns (bool){\n        return true;\n    }\n\n\n    function populateBankData (address _bankAccount, string _name, string _localAddress) public {\n        bankAccount = _bankAccount;\n        participantName = _name;\n        localAddress = _localAddress;\n        isActive = true;\n\n        emit BankDataPopulated(_name, _bankAccount, this, msg.sender, now);\n    }\n\n\n}",
  "sourcePath": "/Users/iraeidelman/IdeaProjects/ira-blockchain/contracts/Bank.sol",
  "compiler": {
    "name": "solc",
    "version": "0.4.24+commit.e67f0147.Emscripten.clang"
  },
  "schemaVersion": "2.0.0",
  "updatedAt": "2018-06-18T13:23:16.484Z"
}