{
  "contractName": "Bank",
  "abi": [
    {
      "constant": true,
      "inputs": [],
      "name": "name",
      "outputs": [
        {
          "name": "",
          "type": "bytes32"
        }
      ],
      "payable": false,
      "stateMutability": "view",
      "type": "function"
    },
    {
      "constant": true,
      "inputs": [],
      "name": "localAddress",
      "outputs": [
        {
          "name": "",
          "type": "bytes32"
        }
      ],
      "payable": false,
      "stateMutability": "view",
      "type": "function"
    },
    {
      "constant": false,
      "inputs": [
        {
          "name": "_name",
          "type": "bytes32"
        },
        {
          "name": "_localAddress",
          "type": "bytes32"
        }
      ],
      "name": "populateData",
      "outputs": [],
      "payable": false,
      "stateMutability": "nonpayable",
      "type": "function"
    },
    {
      "constant": false,
      "inputs": [],
      "name": "activate",
      "outputs": [],
      "payable": false,
      "stateMutability": "nonpayable",
      "type": "function"
    },
    {
      "constant": true,
      "inputs": [],
      "name": "isActive",
      "outputs": [
        {
          "name": "",
          "type": "bool"
        }
      ],
      "payable": false,
      "stateMutability": "view",
      "type": "function"
    },
    {
      "constant": true,
      "inputs": [],
      "name": "bankAccount",
      "outputs": [
        {
          "name": "",
          "type": "address"
        }
      ],
      "payable": false,
      "stateMutability": "view",
      "type": "function"
    },
    {
      "constant": true,
      "inputs": [],
      "name": "getData",
      "outputs": [
        {
          "name": "_name",
          "type": "bytes32"
        },
        {
          "name": "_localAddress",
          "type": "bytes32"
        },
        {
          "name": "_isActive",
          "type": "bool"
        }
      ],
      "payable": false,
      "stateMutability": "view",
      "type": "function"
    },
    {
      "constant": false,
      "inputs": [],
      "name": "deactivate",
      "outputs": [],
      "payable": false,
      "stateMutability": "nonpayable",
      "type": "function"
    },
    {
      "inputs": [],
      "payable": false,
      "stateMutability": "nonpayable",
      "type": "constructor"
    },
    {
      "anonymous": false,
      "inputs": [
        {
          "indexed": false,
          "name": "theContractAddress",
          "type": "address"
        },
        {
          "indexed": false,
          "name": "theSenderAddress",
          "type": "address"
        },
        {
          "indexed": false,
          "name": "timestamp",
          "type": "uint256"
        }
      ],
      "name": "NewBankCreated",
      "type": "event"
    },
    {
      "anonymous": false,
      "inputs": [
        {
          "indexed": false,
          "name": "name",
          "type": "bytes32"
        },
        {
          "indexed": false,
          "name": "theAccount",
          "type": "address"
        },
        {
          "indexed": false,
          "name": "theContractAddress",
          "type": "address"
        },
        {
          "indexed": false,
          "name": "theSenderAddress",
          "type": "address"
        },
        {
          "indexed": false,
          "name": "timestamp",
          "type": "uint256"
        }
      ],
      "name": "BankDataPopulated",
      "type": "event"
    },
    {
      "constant": true,
      "inputs": [],
      "name": "isBank",
      "outputs": [
        {
          "name": "",
          "type": "bool"
        }
      ],
      "payable": false,
      "stateMutability": "pure",
      "type": "function"
    },
    {
      "constant": false,
      "inputs": [
        {
          "name": "_bankAccount",
          "type": "address"
        },
        {
          "name": "_name",
          "type": "bytes32"
        },
        {
          "name": "_localAddress",
          "type": "bytes32"
        }
      ],
      "name": "populateBankData",
      "outputs": [],
      "payable": false,
      "stateMutability": "nonpayable",
      "type": "function"
    }
  ],
  "bytecode": "0x60806040526000600260006101000a81548160ff02191690831515021790555034801561002b57600080fd5b507f80529267470a8cf238458a8261b192a5f922d8bd71140e39aa41c5bd973336e1303342604051808473ffffffffffffffffffffffffffffffffffffffff1673ffffffffffffffffffffffffffffffffffffffff1681526020018373ffffffffffffffffffffffffffffffffffffffff1673ffffffffffffffffffffffffffffffffffffffff168152602001828152602001935050505060405180910390a161052a806100da6000396000f3006080604052600436106100a4576000357c0100000000000000000000000000000000000000000000000000000000900463ffffffff16806306fdde03146100a957806308db16cb146100dc5780630d55748d1461010f5780630f15f4c01461014e578063164be8581461016557806322f3e2d414610194578063377a0f53146101c35780633bc5de301461021a57806351b42b0014610267578063d699d6261461027e575b600080fd5b3480156100b557600080fd5b506100be6102dd565b60405180826000191660001916815260200191505060405180910390f35b3480156100e857600080fd5b506100f16102e3565b60405180826000191660001916815260200191505060405180910390f35b34801561011b57600080fd5b5061014c600480360381019080803560001916906020019092919080356000191690602001909291905050506102e9565b005b34801561015a57600080fd5b50610163610303565b005b34801561017157600080fd5b5061017a610320565b604051808215151515815260200191505060405180910390f35b3480156101a057600080fd5b506101a9610329565b604051808215151515815260200191505060405180910390f35b3480156101cf57600080fd5b506101d861033c565b604051808273ffffffffffffffffffffffffffffffffffffffff1673ffffffffffffffffffffffffffffffffffffffff16815260200191505060405180910390f35b34801561022657600080fd5b5061022f610362565b604051808460001916600019168152602001836000191660001916815260200182151515158152602001935050505060405180910390f35b34801561027357600080fd5b5061027c610387565b005b34801561028a57600080fd5b506102db600480360381019080803573ffffffffffffffffffffffffffffffffffffffff169060200190929190803560001916906020019092919080356000191690602001909291905050506103a4565b005b60005481565b60015481565b816000816000191690555080600181600019169055505050565b6001600260006101000a81548160ff021916908315150217905550565b60006001905090565b600260009054906101000a900460ff1681565b600260019054906101000a900473ffffffffffffffffffffffffffffffffffffffff1681565b6000806000805492506001549150600260009054906101000a900460ff169050909192565b6000600260006101000a81548160ff021916908315150217905550565b82600260016101000a81548173ffffffffffffffffffffffffffffffffffffffff021916908373ffffffffffffffffffffffffffffffffffffffff160217905550816000816000191690555080600181600019169055506001600260006101000a81548160ff0219169083151502179055507fca0cd9bac30bf47a2e7c87896abf2698f77a692c69197a9750a0a8362fbdea2d82843033426040518086600019166000191681526020018573ffffffffffffffffffffffffffffffffffffffff1673ffffffffffffffffffffffffffffffffffffffff1681526020018473ffffffffffffffffffffffffffffffffffffffff1673ffffffffffffffffffffffffffffffffffffffff1681526020018373ffffffffffffffffffffffffffffffffffffffff1673ffffffffffffffffffffffffffffffffffffffff1681526020018281526020019550505050505060405180910390a15050505600a165627a7a72305820c95b7c4fff8b0956235b83d8355471be80bb0e584dc53afce7ba78ab05ef7f9a0029",
  "source": "pragma solidity ^0.4.24;\n\nimport \"./ParticipantData.sol\";\n\ncontract Bank is ParticipantData{\n\n    address public bankAccount;\n\n    event NewBankCreated(address theContractAddress, address theSenderAddress, uint timestamp);\n    event BankDataPopulated(bytes32 name, address theAccount, address theContractAddress, address theSenderAddress, uint timestamp);\n\n    constructor() public {\n        emit NewBankCreated(this, msg.sender, now);\n    }\n\n    function isBank() pure public returns (bool){\n        return true;\n    }\n\n\n    function populateBankData (address _bankAccount, bytes32 _name, bytes32 _localAddress) public {\n        bankAccount = _bankAccount;\n        name = _name;\n        localAddress = _localAddress;\n        isActive = true;\n\n        emit BankDataPopulated(_name, _bankAccount, this, msg.sender, now);\n    }\n\n\n}",
  "sourcePath": "/Users/iraeidelman/IdeaProjects/ira-blockchain/contracts/Bank.sol",
  "compiler": {
    "name": "solc",
    "version": "0.4.24+commit.e67f0147.Emscripten.clang"
  },
  "schemaVersion": "2.0.0",
  "updatedAt": "2018-06-14T10:53:12.776Z"
}