{
  "contractName": "Bank",
  "abi": [
    {
      "constant": true,
      "inputs": [],
      "name": "name",
      "outputs": [
        {
          "name": "",
          "type": "bytes32"
        }
      ],
      "payable": false,
      "stateMutability": "view",
      "type": "function"
    },
    {
      "constant": true,
      "inputs": [],
      "name": "localAddress",
      "outputs": [
        {
          "name": "",
          "type": "bytes32"
        }
      ],
      "payable": false,
      "stateMutability": "view",
      "type": "function"
    },
    {
      "constant": false,
      "inputs": [
        {
          "name": "_name",
          "type": "bytes32"
        },
        {
          "name": "_localAddress",
          "type": "bytes32"
        }
      ],
      "name": "populateData",
      "outputs": [],
      "payable": false,
      "stateMutability": "nonpayable",
      "type": "function"
    },
    {
      "constant": false,
      "inputs": [],
      "name": "activate",
      "outputs": [],
      "payable": false,
      "stateMutability": "nonpayable",
      "type": "function"
    },
    {
      "constant": true,
      "inputs": [],
      "name": "isActive",
      "outputs": [
        {
          "name": "",
          "type": "bool"
        }
      ],
      "payable": false,
      "stateMutability": "view",
      "type": "function"
    },
    {
      "constant": true,
      "inputs": [],
      "name": "getData",
      "outputs": [
        {
          "name": "_name",
          "type": "bytes32"
        },
        {
          "name": "_localAddress",
          "type": "bytes32"
        },
        {
          "name": "_isActive",
          "type": "bool"
        }
      ],
      "payable": false,
      "stateMutability": "view",
      "type": "function"
    },
    {
      "constant": false,
      "inputs": [],
      "name": "deactivate",
      "outputs": [],
      "payable": false,
      "stateMutability": "nonpayable",
      "type": "function"
    },
    {
      "inputs": [],
      "payable": false,
      "stateMutability": "nonpayable",
      "type": "constructor"
    },
    {
      "anonymous": false,
      "inputs": [
        {
          "indexed": false,
          "name": "theContractAddress",
          "type": "address"
        },
        {
          "indexed": false,
          "name": "theSenderAddress",
          "type": "address"
        },
        {
          "indexed": false,
          "name": "timestamp",
          "type": "uint256"
        }
      ],
      "name": "NewBankCreated",
      "type": "event"
    },
    {
      "anonymous": false,
      "inputs": [
        {
          "indexed": false,
          "name": "name",
          "type": "bytes32"
        },
        {
          "indexed": false,
          "name": "_bankAccount",
          "type": "address"
        },
        {
          "indexed": false,
          "name": "theContractAddress",
          "type": "address"
        },
        {
          "indexed": false,
          "name": "theSenderAddress",
          "type": "address"
        },
        {
          "indexed": false,
          "name": "timestamp",
          "type": "uint256"
        }
      ],
      "name": "BankDataPopulated",
      "type": "event"
    },
    {
      "constant": true,
      "inputs": [],
      "name": "isBank",
      "outputs": [
        {
          "name": "_isBank",
          "type": "bool"
        }
      ],
      "payable": false,
      "stateMutability": "pure",
      "type": "function"
    },
    {
      "constant": false,
      "inputs": [
        {
          "name": "_bankAccount",
          "type": "address"
        },
        {
          "name": "_name",
          "type": "bytes32"
        },
        {
          "name": "_localAddress",
          "type": "bytes32"
        }
      ],
      "name": "populateBankData",
      "outputs": [],
      "payable": false,
      "stateMutability": "nonpayable",
      "type": "function"
    }
  ],
  "bytecode": "0x60806040526000600260006101000a81548160ff02191690831515021790555034801561002b57600080fd5b507f80529267470a8cf238458a8261b192a5f922d8bd71140e39aa41c5bd973336e1303342604051808473ffffffffffffffffffffffffffffffffffffffff1673ffffffffffffffffffffffffffffffffffffffff1681526020018373ffffffffffffffffffffffffffffffffffffffff1673ffffffffffffffffffffffffffffffffffffffff168152602001828152602001935050505060405180910390a16104c4806100da6000396000f300608060405260043610610099576000357c0100000000000000000000000000000000000000000000000000000000900463ffffffff16806306fdde031461009e57806308db16cb146100d15780630d55748d146101045780630f15f4c014610143578063164be8581461015a57806322f3e2d4146101895780633bc5de30146101b857806351b42b0014610205578063d699d6261461021c575b600080fd5b3480156100aa57600080fd5b506100b361027b565b60405180826000191660001916815260200191505060405180910390f35b3480156100dd57600080fd5b506100e6610281565b60405180826000191660001916815260200191505060405180910390f35b34801561011057600080fd5b5061014160048036038101908080356000191690602001909291908035600019169060200190929190505050610287565b005b34801561014f57600080fd5b506101586102a1565b005b34801561016657600080fd5b5061016f6102be565b604051808215151515815260200191505060405180910390f35b34801561019557600080fd5b5061019e6102c7565b604051808215151515815260200191505060405180910390f35b3480156101c457600080fd5b506101cd6102da565b604051808460001916600019168152602001836000191660001916815260200182151515158152602001935050505060405180910390f35b34801561021157600080fd5b5061021a6102ff565b005b34801561022857600080fd5b50610279600480360381019080803573ffffffffffffffffffffffffffffffffffffffff1690602001909291908035600019169060200190929190803560001916906020019092919050505061031c565b005b60005481565b60015481565b816000816000191690555080600181600019169055505050565b6001600260006101000a81548160ff021916908315150217905550565b60006001905090565b600260009054906101000a900460ff1681565b6000806000805492506001549150600260009054906101000a900460ff169050909192565b6000600260006101000a81548160ff021916908315150217905550565b82600260016101000a81548173ffffffffffffffffffffffffffffffffffffffff021916908373ffffffffffffffffffffffffffffffffffffffff160217905550816000816000191690555080600181600019169055506001600260006101000a81548160ff0219169083151502179055507fca0cd9bac30bf47a2e7c87896abf2698f77a692c69197a9750a0a8362fbdea2d82600260019054906101000a900473ffffffffffffffffffffffffffffffffffffffff163033426040518086600019166000191681526020018573ffffffffffffffffffffffffffffffffffffffff1673ffffffffffffffffffffffffffffffffffffffff1681526020018473ffffffffffffffffffffffffffffffffffffffff1673ffffffffffffffffffffffffffffffffffffffff1681526020018373ffffffffffffffffffffffffffffffffffffffff1673ffffffffffffffffffffffffffffffffffffffff1681526020018281526020019550505050505060405180910390a15050505600a165627a7a72305820ff8af6d6e7f8e924f6c998d1880feb582e8c4cad042e9535298178f0e9291d470029",
  "source": "pragma solidity ^0.4.24;\n\nimport \"./ParticipantData.sol\";\n\ncontract Bank is ParticipantData{\n\n    address bankAccount;\n\n    event NewBankCreated(address theContractAddress, address theSenderAddress, uint timestamp);\n    event BankDataPopulated(bytes32 name, address _bankAccount, address theContractAddress, address theSenderAddress, uint timestamp);\n\n    constructor() public {\n        emit NewBankCreated(this, msg.sender, now);\n    }\n\n    function isBank() pure public returns (bool _isBank){\n        _isBank = true;\n    }\n\n\n    function populateBankData (address _bankAccount, bytes32 _name, bytes32 _localAddress) public {\n        bankAccount = _bankAccount;\n        name = _name;\n        localAddress = _localAddress;\n        isActive = true;\n\n        emit BankDataPopulated(_name, bankAccount, this, msg.sender, now);\n    }\n\n\n}",
  "sourcePath": "/Users/iraeidelman/IdeaProjects/ira-blockchain/contracts/Bank.sol",
  "compiler": {
    "name": "solc",
    "version": "0.4.24+commit.e67f0147.Emscripten.clang"
  },
  "schemaVersion": "2.0.0",
  "updatedAt": "2018-06-10T15:48:53.295Z"
}