{
  "contractName": "Customer",
  "abi": [
    {
      "constant": true,
      "inputs": [],
      "name": "name",
      "outputs": [
        {
          "name": "",
          "type": "bytes32"
        }
      ],
      "payable": false,
      "stateMutability": "view",
      "type": "function"
    },
    {
      "constant": true,
      "inputs": [],
      "name": "localAddress",
      "outputs": [
        {
          "name": "",
          "type": "bytes32"
        }
      ],
      "payable": false,
      "stateMutability": "view",
      "type": "function"
    },
    {
      "constant": false,
      "inputs": [
        {
          "name": "_name",
          "type": "bytes32"
        },
        {
          "name": "_localAddress",
          "type": "bytes32"
        }
      ],
      "name": "populateData",
      "outputs": [],
      "payable": false,
      "stateMutability": "nonpayable",
      "type": "function"
    },
    {
      "constant": false,
      "inputs": [],
      "name": "activate",
      "outputs": [],
      "payable": false,
      "stateMutability": "nonpayable",
      "type": "function"
    },
    {
      "constant": true,
      "inputs": [],
      "name": "isActive",
      "outputs": [
        {
          "name": "",
          "type": "bool"
        }
      ],
      "payable": false,
      "stateMutability": "view",
      "type": "function"
    },
    {
      "constant": true,
      "inputs": [],
      "name": "getData",
      "outputs": [
        {
          "name": "_name",
          "type": "bytes32"
        },
        {
          "name": "_localAddress",
          "type": "bytes32"
        },
        {
          "name": "_isActive",
          "type": "bool"
        }
      ],
      "payable": false,
      "stateMutability": "view",
      "type": "function"
    },
    {
      "constant": false,
      "inputs": [],
      "name": "deactivate",
      "outputs": [],
      "payable": false,
      "stateMutability": "nonpayable",
      "type": "function"
    },
    {
      "inputs": [],
      "payable": false,
      "stateMutability": "nonpayable",
      "type": "constructor"
    },
    {
      "anonymous": false,
      "inputs": [
        {
          "indexed": false,
          "name": "theContractAddress",
          "type": "address"
        },
        {
          "indexed": false,
          "name": "theSenderAddress",
          "type": "address"
        },
        {
          "indexed": false,
          "name": "timestamp",
          "type": "uint256"
        }
      ],
      "name": "NewCustomerCreated",
      "type": "event"
    },
    {
      "anonymous": false,
      "inputs": [
        {
          "indexed": false,
          "name": "name",
          "type": "bytes32"
        },
        {
          "indexed": false,
          "name": "theAccount",
          "type": "address"
        },
        {
          "indexed": false,
          "name": "theContractAddress",
          "type": "address"
        },
        {
          "indexed": false,
          "name": "theSenderAddress",
          "type": "address"
        },
        {
          "indexed": false,
          "name": "timestamp",
          "type": "uint256"
        }
      ],
      "name": "CustomerDataPopulated",
      "type": "event"
    },
    {
      "constant": true,
      "inputs": [],
      "name": "isCustomer",
      "outputs": [
        {
          "name": "",
          "type": "bool"
        }
      ],
      "payable": false,
      "stateMutability": "pure",
      "type": "function"
    },
    {
      "constant": false,
      "inputs": [
        {
          "name": "_customerAccount",
          "type": "address"
        },
        {
          "name": "_name",
          "type": "bytes32"
        },
        {
          "name": "_localAddress",
          "type": "bytes32"
        }
      ],
      "name": "populateCustomerData",
      "outputs": [],
      "payable": false,
      "stateMutability": "nonpayable",
      "type": "function"
    }
  ],
  "bytecode": "0x60806040526000600260006101000a81548160ff02191690831515021790555034801561002b57600080fd5b507fbe793d62f6a83b23ee9065d137323bb3b333efc5c2777898e55def621c6c5ef2303342604051808473ffffffffffffffffffffffffffffffffffffffff1673ffffffffffffffffffffffffffffffffffffffff1681526020018373ffffffffffffffffffffffffffffffffffffffff1673ffffffffffffffffffffffffffffffffffffffff168152602001828152602001935050505060405180910390a16104a2806100da6000396000f300608060405260043610610099576000357c0100000000000000000000000000000000000000000000000000000000900463ffffffff16806306fdde031461009e57806308db16cb146100d15780630d55748d146101045780630f15f4c01461014357806322f3e2d41461015a5780633bc5de30146101895780633caef4aa146101d657806351b42b001461023557806371c3418e1461024c575b600080fd5b3480156100aa57600080fd5b506100b361027b565b60405180826000191660001916815260200191505060405180910390f35b3480156100dd57600080fd5b506100e6610281565b60405180826000191660001916815260200191505060405180910390f35b34801561011057600080fd5b5061014160048036038101908080356000191690602001909291908035600019169060200190929190505050610287565b005b34801561014f57600080fd5b506101586102a1565b005b34801561016657600080fd5b5061016f6102be565b604051808215151515815260200191505060405180910390f35b34801561019557600080fd5b5061019e6102d1565b604051808460001916600019168152602001836000191660001916815260200182151515158152602001935050505060405180910390f35b3480156101e257600080fd5b50610233600480360381019080803573ffffffffffffffffffffffffffffffffffffffff169060200190929190803560001916906020019092919080356000191690602001909291905050506102f6565b005b34801561024157600080fd5b5061024a610450565b005b34801561025857600080fd5b5061026161046d565b604051808215151515815260200191505060405180910390f35b60005481565b60015481565b816000816000191690555080600181600019169055505050565b6001600260006101000a81548160ff021916908315150217905550565b600260009054906101000a900460ff1681565b6000806000805492506001549150600260009054906101000a900460ff169050909192565b82600260016101000a81548173ffffffffffffffffffffffffffffffffffffffff021916908373ffffffffffffffffffffffffffffffffffffffff160217905550816000816000191690555080600181600019169055506001600260006101000a81548160ff0219169083151502179055507f74040ff263b8f30e5b30fef028fe4bde9a5e28df244ac914a6f5fff0d510d52082843033426040518086600019166000191681526020018573ffffffffffffffffffffffffffffffffffffffff1673ffffffffffffffffffffffffffffffffffffffff1681526020018473ffffffffffffffffffffffffffffffffffffffff1673ffffffffffffffffffffffffffffffffffffffff1681526020018373ffffffffffffffffffffffffffffffffffffffff1673ffffffffffffffffffffffffffffffffffffffff1681526020018281526020019550505050505060405180910390a1505050565b6000600260006101000a81548160ff021916908315150217905550565b600060019050905600a165627a7a72305820221f2bf963cb0c8713cd8fa9fb95658750f30dcbb259d93a75fdde2a7262d2760029",
  "source": "pragma solidity ^0.4.24;\n\nimport \"./ParticipantData.sol\";\n\n\ncontract Customer is ParticipantData {\n\n\n    address customerAccount;\n\n    event NewCustomerCreated(address theContractAddress, address theSenderAddress, uint timestamp);\n    event CustomerDataPopulated(bytes32 name, address theAccount, address theContractAddress, address theSenderAddress, uint timestamp);\n\n    function isCustomer() pure public returns (bool){\n        return true;\n    }\n\n    constructor() public {\n        emit NewCustomerCreated(this, msg.sender, now);\n    }\n\n\n\n    function populateCustomerData (address _customerAccount, bytes32 _name, bytes32 _localAddress) public {\n        customerAccount = _customerAccount;\n        name = _name;\n        localAddress = _localAddress;\n        isActive = true;\n\n        emit CustomerDataPopulated(_name, _customerAccount, this, msg.sender, now);\n    }\n\n\n}\n",
  "sourcePath": "/Users/iraeidelman/IdeaProjects/ira-blockchain/contracts/Customer.sol",
  "compiler": {
    "name": "solc",
    "version": "0.4.24+commit.e67f0147.Emscripten.clang"
  },
  "schemaVersion": "2.0.0",
  "updatedAt": "2018-06-14T09:02:59.791Z"
}