{
  "contractName": "Customer",
  "abi": [
    {
      "constant": true,
      "inputs": [],
      "name": "localAddress",
      "outputs": [
        {
          "name": "",
          "type": "string"
        }
      ],
      "payable": false,
      "stateMutability": "view",
      "type": "function"
    },
    {
      "constant": false,
      "inputs": [],
      "name": "activate",
      "outputs": [],
      "payable": false,
      "stateMutability": "nonpayable",
      "type": "function"
    },
    {
      "constant": true,
      "inputs": [],
      "name": "isActive",
      "outputs": [
        {
          "name": "",
          "type": "bool"
        }
      ],
      "payable": false,
      "stateMutability": "view",
      "type": "function"
    },
    {
      "constant": true,
      "inputs": [],
      "name": "participantName",
      "outputs": [
        {
          "name": "",
          "type": "string"
        }
      ],
      "payable": false,
      "stateMutability": "view",
      "type": "function"
    },
    {
      "constant": true,
      "inputs": [],
      "name": "getData",
      "outputs": [
        {
          "name": "_name",
          "type": "string"
        },
        {
          "name": "_localAddress",
          "type": "string"
        },
        {
          "name": "_isActive",
          "type": "bool"
        }
      ],
      "payable": false,
      "stateMutability": "view",
      "type": "function"
    },
    {
      "constant": false,
      "inputs": [],
      "name": "deactivate",
      "outputs": [],
      "payable": false,
      "stateMutability": "nonpayable",
      "type": "function"
    },
    {
      "constant": false,
      "inputs": [
        {
          "name": "_name",
          "type": "string"
        },
        {
          "name": "_localAddress",
          "type": "string"
        }
      ],
      "name": "populateData",
      "outputs": [],
      "payable": false,
      "stateMutability": "nonpayable",
      "type": "function"
    },
    {
      "inputs": [],
      "payable": false,
      "stateMutability": "nonpayable",
      "type": "constructor"
    },
    {
      "anonymous": false,
      "inputs": [
        {
          "indexed": false,
          "name": "theContractAddress",
          "type": "address"
        },
        {
          "indexed": false,
          "name": "theSenderAddress",
          "type": "address"
        },
        {
          "indexed": false,
          "name": "timestamp",
          "type": "uint256"
        }
      ],
      "name": "NewCustomerCreated",
      "type": "event"
    },
    {
      "anonymous": false,
      "inputs": [
        {
          "indexed": false,
          "name": "name",
          "type": "string"
        },
        {
          "indexed": false,
          "name": "theAccount",
          "type": "address"
        },
        {
          "indexed": false,
          "name": "theContractAddress",
          "type": "address"
        },
        {
          "indexed": false,
          "name": "theSenderAddress",
          "type": "address"
        },
        {
          "indexed": false,
          "name": "timestamp",
          "type": "uint256"
        }
      ],
      "name": "CustomerDataPopulated",
      "type": "event"
    },
    {
      "constant": true,
      "inputs": [],
      "name": "isCustomer",
      "outputs": [
        {
          "name": "",
          "type": "bool"
        }
      ],
      "payable": false,
      "stateMutability": "pure",
      "type": "function"
    },
    {
      "constant": false,
      "inputs": [
        {
          "name": "_customerAccount",
          "type": "address"
        },
        {
          "name": "_name",
          "type": "string"
        },
        {
          "name": "_localAddress",
          "type": "string"
        }
      ],
      "name": "populateCustomerData",
      "outputs": [],
      "payable": false,
      "stateMutability": "nonpayable",
      "type": "function"
    }
  ],
  "bytecode": "0x60806040526000600260006101000a81548160ff02191690831515021790555034801561002b57600080fd5b507fbe793d62f6a83b23ee9065d137323bb3b333efc5c2777898e55def621c6c5ef2303342604051808473ffffffffffffffffffffffffffffffffffffffff1673ffffffffffffffffffffffffffffffffffffffff1681526020018373ffffffffffffffffffffffffffffffffffffffff1673ffffffffffffffffffffffffffffffffffffffff168152602001828152602001935050505060405180910390a1610a88806100da6000396000f300608060405260043610610099576000357c0100000000000000000000000000000000000000000000000000000000900463ffffffff16806308db16cb1461009e5780630f15f4c01461012e57806322e2df801461014557806322f3e2d4146102145780632ca01a1e146102435780633bc5de30146102d357806351b42b00146103da57806371c3418e146103f157806395f2d09814610420575b600080fd5b3480156100aa57600080fd5b506100b36104cf565b6040518080602001828103825283818151815260200191508051906020019080838360005b838110156100f35780820151818401526020810190506100d8565b50505050905090810190601f1680156101205780820380516001836020036101000a031916815260200191505b509250505060405180910390f35b34801561013a57600080fd5b5061014361056d565b005b34801561015157600080fd5b50610212600480360381019080803573ffffffffffffffffffffffffffffffffffffffff169060200190929190803590602001908201803590602001908080601f0160208091040260200160405190810160405280939291908181526020018383808284378201915050505050509192919290803590602001908201803590602001908080601f016020809104026020016040519081016040528093929190818152602001838380828437820191505050505050919291929050505061058a565b005b34801561022057600080fd5b50610229610759565b604051808215151515815260200191505060405180910390f35b34801561024f57600080fd5b5061025861076c565b6040518080602001828103825283818151815260200191508051906020019080838360005b8381101561029857808201518184015260208101905061027d565b50505050905090810190601f1680156102c55780820380516001836020036101000a031916815260200191505b509250505060405180910390f35b3480156102df57600080fd5b506102e861080a565b60405180806020018060200184151515158152602001838103835286818151815260200191508051906020019080838360005b8381101561033657808201518184015260208101905061031b565b50505050905090810190601f1680156103635780820380516001836020036101000a031916815260200191505b50838103825285818151815260200191508051906020019080838360005b8381101561039c578082015181840152602081019050610381565b50505050905090810190601f1680156103c95780820380516001836020036101000a031916815260200191505b509550505050505060405180910390f35b3480156103e657600080fd5b506103ef61095f565b005b3480156103fd57600080fd5b5061040661097c565b604051808215151515815260200191505060405180910390f35b34801561042c57600080fd5b506104cd600480360381019080803590602001908201803590602001908080601f0160208091040260200160405190810160405280939291908181526020018383808284378201915050505050509192919290803590602001908201803590602001908080601f0160208091040260200160405190810160405280939291908181526020018383808284378201915050505050509192919290505050610985565b005b60018054600181600116156101000203166002900480601f0160208091040260200160405190810160405280929190818152602001828054600181600116156101000203166002900480156105655780601f1061053a57610100808354040283529160200191610565565b820191906000526020600020905b81548152906001019060200180831161054857829003601f168201915b505050505081565b6001600260006101000a81548160ff021916908315150217905550565b82600260016101000a81548173ffffffffffffffffffffffffffffffffffffffff021916908373ffffffffffffffffffffffffffffffffffffffff16021790555081600090805190602001906105e19291906109b7565b5080600190805190602001906105f89291906109b7565b506001600260006101000a81548160ff0219169083151502179055507f4807254ab938dc4e3e09278358eda98e7b2a99f1da46fc6bce239e5394309e92828430334260405180806020018673ffffffffffffffffffffffffffffffffffffffff1673ffffffffffffffffffffffffffffffffffffffff1681526020018573ffffffffffffffffffffffffffffffffffffffff1673ffffffffffffffffffffffffffffffffffffffff1681526020018473ffffffffffffffffffffffffffffffffffffffff1673ffffffffffffffffffffffffffffffffffffffff168152602001838152602001828103825287818151815260200191508051906020019080838360005b838110156107165780820151818401526020810190506106fb565b50505050905090810190601f1680156107435780820380516001836020036101000a031916815260200191505b50965050505050505060405180910390a1505050565b600260009054906101000a900460ff1681565b60008054600181600116156101000203166002900480601f0160208091040260200160405190810160405280929190818152602001828054600181600116156101000203166002900480156108025780601f106107d757610100808354040283529160200191610802565b820191906000526020600020905b8154815290600101906020018083116107e557829003601f168201915b505050505081565b6060806000808054600181600116156101000203166002900480601f0160208091040260200160405190810160405280929190818152602001828054600181600116156101000203166002900480156108a45780601f10610879576101008083540402835291602001916108a4565b820191906000526020600020905b81548152906001019060200180831161088757829003601f168201915b5050505050925060018054600181600116156101000203166002900480601f0160208091040260200160405190810160405280929190818152602001828054600181600116156101000203166002900480156109415780601f1061091657610100808354040283529160200191610941565b820191906000526020600020905b81548152906001019060200180831161092457829003601f168201915b50505050509150600260009054906101000a900460ff169050909192565b6000600260006101000a81548160ff021916908315150217905550565b60006001905090565b816000908051906020019061099b9291906109b7565b5080600190805190602001906109b29291906109b7565b505050565b828054600181600116156101000203166002900490600052602060002090601f016020900481019282601f106109f857805160ff1916838001178555610a26565b82800160010185558215610a26579182015b82811115610a25578251825591602001919060010190610a0a565b5b509050610a339190610a37565b5090565b610a5991905b80821115610a55576000816000905550600101610a3d565b5090565b905600a165627a7a723058201bc5a93fddeaad77a241045b74ecb2ec9a1709ca40078ad9d38470085109e64b0029",
  "source": "pragma solidity ^0.4.24;\n\nimport \"./ParticipantData.sol\";\n\n\ncontract Customer is ParticipantData {\n\n\n    address customerAccount;\n\n    event NewCustomerCreated(address theContractAddress, address theSenderAddress, uint timestamp);\n    event CustomerDataPopulated(string name, address theAccount, address theContractAddress, address theSenderAddress, uint timestamp);\n\n    function isCustomer() pure public returns (bool){\n        return true;\n    }\n\n    constructor() public {\n        emit NewCustomerCreated(this, msg.sender, now);\n    }\n\n\n\n    function populateCustomerData (address _customerAccount, string _name, string _localAddress) public {\n        customerAccount = _customerAccount;\n        participantName = _name;\n        localAddress = _localAddress;\n        isActive = true;\n\n        emit CustomerDataPopulated(_name, _customerAccount, this, msg.sender, now);\n    }\n\n\n}\n",
  "sourcePath": "/Users/iraeidelman/IdeaProjects/ira-blockchain/contracts/Customer.sol",
  "compiler": {
    "name": "solc",
    "version": "0.4.24+commit.e67f0147.Emscripten.clang"
  },
  "schemaVersion": "2.0.0",
  "updatedAt": "2018-06-18T13:01:13.399Z"
}