{
  "contractName": "FirstGuarantee",
  "abi": [
    {
      "constant": false,
      "inputs": [],
      "name": "deleteContract",
      "outputs": [],
      "payable": false,
      "stateMutability": "nonpayable",
      "type": "function"
    },
    {
      "constant": false,
      "inputs": [],
      "name": "renounceOwnership",
      "outputs": [],
      "payable": false,
      "stateMutability": "nonpayable",
      "type": "function"
    },
    {
      "constant": true,
      "inputs": [],
      "name": "getOwner",
      "outputs": [
        {
          "name": "",
          "type": "address"
        }
      ],
      "payable": false,
      "stateMutability": "view",
      "type": "function"
    },
    {
      "constant": true,
      "inputs": [],
      "name": "owner",
      "outputs": [
        {
          "name": "",
          "type": "address"
        }
      ],
      "payable": false,
      "stateMutability": "view",
      "type": "function"
    },
    {
      "constant": true,
      "inputs": [],
      "name": "roleUtils",
      "outputs": [
        {
          "name": "",
          "type": "address"
        }
      ],
      "payable": false,
      "stateMutability": "view",
      "type": "function"
    },
    {
      "constant": false,
      "inputs": [
        {
          "name": "_municipality",
          "type": "address"
        },
        {
          "name": "_bank",
          "type": "address"
        },
        {
          "name": "_customer",
          "type": "address"
        },
        {
          "name": "_guaranteeDocumentHash",
          "type": "bytes"
        }
      ],
      "name": "populateBaseGuaranteeData",
      "outputs": [],
      "payable": false,
      "stateMutability": "nonpayable",
      "type": "function"
    },
    {
      "constant": false,
      "inputs": [
        {
          "name": "newOwner",
          "type": "address"
        }
      ],
      "name": "transferOwnership",
      "outputs": [],
      "payable": false,
      "stateMutability": "nonpayable",
      "type": "function"
    },
    {
      "inputs": [
        {
          "name": "roleUtilsAddress",
          "type": "address"
        }
      ],
      "payable": false,
      "stateMutability": "nonpayable",
      "type": "constructor"
    },
    {
      "anonymous": false,
      "inputs": [
        {
          "indexed": false,
          "name": "theMessage",
          "type": "string"
        },
        {
          "indexed": false,
          "name": "theContractAddress",
          "type": "address"
        },
        {
          "indexed": false,
          "name": "theSenderAddress",
          "type": "address"
        },
        {
          "indexed": false,
          "name": "timestamp",
          "type": "uint256"
        }
      ],
      "name": "FirstGuaranteeCreated",
      "type": "event"
    },
    {
      "anonymous": false,
      "inputs": [
        {
          "indexed": false,
          "name": "theMessage",
          "type": "string"
        },
        {
          "indexed": false,
          "name": "theContractAddress",
          "type": "address"
        },
        {
          "indexed": false,
          "name": "theSenderAddress",
          "type": "address"
        },
        {
          "indexed": false,
          "name": "timestamp",
          "type": "uint256"
        }
      ],
      "name": "FirstGuaranteePopulated",
      "type": "event"
    },
    {
      "anonymous": false,
      "inputs": [
        {
          "indexed": false,
          "name": "theMessage",
          "type": "string"
        },
        {
          "indexed": false,
          "name": "theContractAddress",
          "type": "address"
        },
        {
          "indexed": false,
          "name": "theSenderAddress",
          "type": "address"
        },
        {
          "indexed": false,
          "name": "timestamp",
          "type": "uint256"
        }
      ],
      "name": "BaseGuaranteeCreated",
      "type": "event"
    },
    {
      "anonymous": false,
      "inputs": [
        {
          "indexed": false,
          "name": "theMessage",
          "type": "string"
        },
        {
          "indexed": false,
          "name": "theContractAddress",
          "type": "address"
        },
        {
          "indexed": false,
          "name": "theSenderAddress",
          "type": "address"
        },
        {
          "indexed": false,
          "name": "timestamp",
          "type": "uint256"
        }
      ],
      "name": "BaseGuaranteePopulated",
      "type": "event"
    },
    {
      "anonymous": false,
      "inputs": [
        {
          "indexed": false,
          "name": "theMessage",
          "type": "string"
        },
        {
          "indexed": false,
          "name": "theContractAddress",
          "type": "address"
        },
        {
          "indexed": false,
          "name": "theSenderAddress",
          "type": "address"
        },
        {
          "indexed": false,
          "name": "timestamp",
          "type": "uint256"
        }
      ],
      "name": "RoleUtilsAdded",
      "type": "event"
    },
    {
      "anonymous": false,
      "inputs": [
        {
          "indexed": true,
          "name": "previousOwner",
          "type": "address"
        }
      ],
      "name": "OwnershipRenounced",
      "type": "event"
    },
    {
      "anonymous": false,
      "inputs": [
        {
          "indexed": true,
          "name": "previousOwner",
          "type": "address"
        },
        {
          "indexed": true,
          "name": "newOwner",
          "type": "address"
        }
      ],
      "name": "OwnershipTransferred",
      "type": "event"
    },
    {
      "constant": true,
      "inputs": [],
      "name": "getId",
      "outputs": [
        {
          "name": "_contract_id",
          "type": "address"
        }
      ],
      "payable": false,
      "stateMutability": "view",
      "type": "function"
    },
    {
      "constant": false,
      "inputs": [
        {
          "name": "_municipality",
          "type": "address"
        },
        {
          "name": "_bank",
          "type": "address"
        },
        {
          "name": "_customer",
          "type": "address"
        },
        {
          "name": "_guaranteeDocumentHash",
          "type": "bytes"
        }
      ],
      "name": "populateGuaranteeData",
      "outputs": [],
      "payable": false,
      "stateMutability": "nonpayable",
      "type": "function"
    }
  ],
  "bytecode": "0x608060405234801561001057600080fd5b506040516020806111ff8339810180604052810190808051906020019092919050505080336000806101000a81548173ffffffffffffffffffffffffffffffffffffffff021916908373ffffffffffffffffffffffffffffffffffffffff16021790555080600560006101000a81548173ffffffffffffffffffffffffffffffffffffffff021916908373ffffffffffffffffffffffffffffffffffffffff1602179055507fede7e705e0f361156944a5486753c24f21c4988bcb1a31c3d9648f5fe78de2c930334260405180806020018573ffffffffffffffffffffffffffffffffffffffff1673ffffffffffffffffffffffffffffffffffffffff1681526020018473ffffffffffffffffffffffffffffffffffffffff1673ffffffffffffffffffffffffffffffffffffffff1681526020018381526020018281038252601c8152602001807f546865204261736547756172616e74656520637265617465642121210000000081525060200194505050505060405180910390a17f2a940025418a7ad6b80323c94f7d84abd8233d62abb0960b9ecea56e5279f0ee600560009054906101000a900473ffffffffffffffffffffffffffffffffffffffff16334260405180806020018573ffffffffffffffffffffffffffffffffffffffff1673ffffffffffffffffffffffffffffffffffffffff1681526020018473ffffffffffffffffffffffffffffffffffffffff1673ffffffffffffffffffffffffffffffffffffffff168152602001838152602001828103825260198152602001807f54686520526f6c655574696c732061646472657373206973200000000000000081525060200194505050505060405180910390a1507f9bcf69acdaeabfce8c001d11f963879595b5109cde90a38eac7585c6dee47be330334260405180806020018573ffffffffffffffffffffffffffffffffffffffff1673ffffffffffffffffffffffffffffffffffffffff1681526020018473ffffffffffffffffffffffffffffffffffffffff1673ffffffffffffffffffffffffffffffffffffffff1681526020018381526020018281038252601d8152602001807f54686520466972737447756172616e746565206372656174656421212100000081525060200194505050505060405180910390a150610e8f806103706000396000f300608060405260043610610099576000357c0100000000000000000000000000000000000000000000000000000000900463ffffffff1680635a58cd4c1461009e5780635d1ca631146100b5578063715018a61461010c578063893d20e8146101235780638da5cb5b1461017a578063aeed04b1146101d1578063afd0626b1461029a578063eddc4b7c146102f1578063f2fde38b146103ba575b600080fd5b3480156100aa57600080fd5b506100b36103fd565b005b3480156100c157600080fd5b506100ca610492565b604051808273ffffffffffffffffffffffffffffffffffffffff1673ffffffffffffffffffffffffffffffffffffffff16815260200191505060405180910390f35b34801561011857600080fd5b5061012161049a565b005b34801561012f57600080fd5b5061013861059c565b604051808273ffffffffffffffffffffffffffffffffffffffff1673ffffffffffffffffffffffffffffffffffffffff16815260200191505060405180910390f35b34801561018657600080fd5b5061018f6105c5565b604051808273ffffffffffffffffffffffffffffffffffffffff1673ffffffffffffffffffffffffffffffffffffffff16815260200191505060405180910390f35b3480156101dd57600080fd5b50610298600480360381019080803573ffffffffffffffffffffffffffffffffffffffff169060200190929190803573ffffffffffffffffffffffffffffffffffffffff169060200190929190803573ffffffffffffffffffffffffffffffffffffffff169060200190929190803590602001908201803590602001908080601f01602080910402602001604051908101604052809392919081815260200183838082843782019150505050505091929192905050506105ea565b005b3480156102a657600080fd5b506102af6107d2565b604051808273ffffffffffffffffffffffffffffffffffffffff1673ffffffffffffffffffffffffffffffffffffffff16815260200191505060405180910390f35b3480156102fd57600080fd5b506103b8600480360381019080803573ffffffffffffffffffffffffffffffffffffffff169060200190929190803573ffffffffffffffffffffffffffffffffffffffff169060200190929190803573ffffffffffffffffffffffffffffffffffffffff169060200190929190803590602001908201803590602001908080601f01602080910402602001604051908101604052809392919081815260200183838082843782019150505050505091929192905050506107f8565b005b3480156103c657600080fd5b506103fb600480360381019080803573ffffffffffffffffffffffffffffffffffffffff1690602001909291905050506109b3565b005b6000809054906101000a900473ffffffffffffffffffffffffffffffffffffffff1673ffffffffffffffffffffffffffffffffffffffff163373ffffffffffffffffffffffffffffffffffffffff1614151561045857600080fd5b6000809054906101000a900473ffffffffffffffffffffffffffffffffffffffff1673ffffffffffffffffffffffffffffffffffffffff16ff5b600030905090565b6000809054906101000a900473ffffffffffffffffffffffffffffffffffffffff1673ffffffffffffffffffffffffffffffffffffffff163373ffffffffffffffffffffffffffffffffffffffff161415156104f557600080fd5b6000809054906101000a900473ffffffffffffffffffffffffffffffffffffffff1673ffffffffffffffffffffffffffffffffffffffff167ff8df31144d9c2f0f6b59d69b8b98abd5459d07f2742c4df920b25aae33c6482060405160405180910390a260008060006101000a81548173ffffffffffffffffffffffffffffffffffffffff021916908373ffffffffffffffffffffffffffffffffffffffff160217905550565b60008060009054906101000a900473ffffffffffffffffffffffffffffffffffffffff16905090565b6000809054906101000a900473ffffffffffffffffffffffffffffffffffffffff1681565b600560009054906101000a900473ffffffffffffffffffffffffffffffffffffffff1673ffffffffffffffffffffffffffffffffffffffff166324d7806c336040518263ffffffff167c0100000000000000000000000000000000000000000000000000000000028152600401808273ffffffffffffffffffffffffffffffffffffffff1673ffffffffffffffffffffffffffffffffffffffff168152602001915050602060405180830381600087803b1580156106a757600080fd5b505af11580156106bb573d6000803e3d6000fd5b505050506040513d60208110156106d157600080fd5b8101908080519060200190929190505050156107cc576106f3848484846107f8565b7f895dde1385d58e63161a203924147fda7f3cebbf0a63d4f979724f3d9e9243c930334260405180806020018573ffffffffffffffffffffffffffffffffffffffff1673ffffffffffffffffffffffffffffffffffffffff1681526020018473ffffffffffffffffffffffffffffffffffffffff1673ffffffffffffffffffffffffffffffffffffffff1681526020018381526020018281038252601c8152602001807f466972737447756172616e7479206461746120706f70756c617465640000000081525060200194505050505060405180910390a15b50505050565b600560009054906101000a900473ffffffffffffffffffffffffffffffffffffffff1681565b6000806000600560009054906101000a900473ffffffffffffffffffffffffffffffffffffffff1673ffffffffffffffffffffffffffffffffffffffff166324d7806c336040518263ffffffff167c0100000000000000000000000000000000000000000000000000000000028152600401808273ffffffffffffffffffffffffffffffffffffffff1673ffffffffffffffffffffffffffffffffffffffff168152602001915050602060405180830381600087803b1580156108ba57600080fd5b505af11580156108ce573d6000803e3d6000fd5b505050506040513d60208110156108e457600080fd5b8101908080519060200190929190505050156109aa578692508591508490506109a983838360048054600181600116156101000203166002900480601f01602080910402602001604051908101604052809291908181526020018280546001816001161561010002031660029004801561099f5780601f106109745761010080835404028352916020019161099f565b820191906000526020600020905b81548152906001019060200180831161098257829003601f168201915b5050505050610b08565b5b50505050505050565b6000809054906101000a900473ffffffffffffffffffffffffffffffffffffffff1673ffffffffffffffffffffffffffffffffffffffff163373ffffffffffffffffffffffffffffffffffffffff16141515610a0e57600080fd5b600073ffffffffffffffffffffffffffffffffffffffff168173ffffffffffffffffffffffffffffffffffffffff1614151515610a4a57600080fd5b8073ffffffffffffffffffffffffffffffffffffffff166000809054906101000a900473ffffffffffffffffffffffffffffffffffffffff1673ffffffffffffffffffffffffffffffffffffffff167f8be0079c531659141344cd1fd0a4f28419497f9722a3daafe3b4186f6b6457e060405160405180910390a3806000806101000a81548173ffffffffffffffffffffffffffffffffffffffff021916908373ffffffffffffffffffffffffffffffffffffffff16021790555050565b600560009054906101000a900473ffffffffffffffffffffffffffffffffffffffff1673ffffffffffffffffffffffffffffffffffffffff166324d7806c336040518263ffffffff167c0100000000000000000000000000000000000000000000000000000000028152600401808273ffffffffffffffffffffffffffffffffffffffff1673ffffffffffffffffffffffffffffffffffffffff168152602001915050602060405180830381600087803b158015610bc557600080fd5b505af1158015610bd9573d6000803e3d6000fd5b505050506040513d6020811015610bef57600080fd5b810190808051906020019092919050505015610db85783600160006101000a81548173ffffffffffffffffffffffffffffffffffffffff021916908373ffffffffffffffffffffffffffffffffffffffff16021790555082600260006101000a81548173ffffffffffffffffffffffffffffffffffffffff021916908373ffffffffffffffffffffffffffffffffffffffff16021790555081600360006101000a81548173ffffffffffffffffffffffffffffffffffffffff021916908373ffffffffffffffffffffffffffffffffffffffff1602179055508060049080519060200190610cde929190610dbe565b507fb10884bad5aac84eeb93df83c969033252114198c7519cb3e7986dd70e967f0c30334260405180806020018573ffffffffffffffffffffffffffffffffffffffff1673ffffffffffffffffffffffffffffffffffffffff1681526020018473ffffffffffffffffffffffffffffffffffffffff1673ffffffffffffffffffffffffffffffffffffffff1681526020018381526020018281038252601c8152602001807f4261736547756172616e746565206461746120706f70756c617465640000000081525060200194505050505060405180910390a15b50505050565b828054600181600116156101000203166002900490600052602060002090601f016020900481019282601f10610dff57805160ff1916838001178555610e2d565b82800160010185558215610e2d579182015b82811115610e2c578251825591602001919060010190610e11565b5b509050610e3a9190610e3e565b5090565b610e6091905b80821115610e5c576000816000905550600101610e44565b5090565b905600a165627a7a723058204308836eabea96970488ccb1c81f464d5ad8f446b0d1a10a665551ed2f0350c60029",
  "source": "pragma solidity ^0.4.24;\n\nimport \"./BaseGuaranteeData.sol\";\n\n\ncontract FirstGuarantee is BaseGuaranteeData {\n\n\n    event FirstGuaranteeCreated(string theMessage, address theContractAddress, address theSenderAddress, uint timestamp);\n    event FirstGuaranteePopulated(string theMessage, address theContractAddress, address theSenderAddress, uint timestamp);\n\n    function getId() public constant returns (address _contract_id){\n        return this;\n    }\n\n\n    constructor (address roleUtilsAddress) public BaseGuaranteeData(roleUtilsAddress){\n\n        emit FirstGuaranteeCreated(\"The FirstGuarantee created!!!\", this, msg.sender, now);\n    }\n\n\n    function populateGuaranteeData(address _municipality, address _bank, address _customer, bytes _guaranteeDocumentHash) onlyAdmin public {\n        BaseGuaranteeData.populateBaseGuaranteeData(_municipality, _bank, _customer, _guaranteeDocumentHash);\n\n        emit FirstGuaranteePopulated(\"FirstGuaranty data populated\", this, msg.sender, now);\n    }\n\n}\n",
  "sourcePath": "/Users/iraeidelman/IdeaProjects/ira-blockchain/contracts/FirstGuarantee.sol",
  "compiler": {
    "name": "solc",
    "version": "0.4.24+commit.e67f0147.Emscripten.clang"
  },
  "schemaVersion": "2.0.0",
  "updatedAt": "2018-06-14T09:03:40.544Z"
}