{
  "contractName": "Initializer",
  "abi": [
    {
      "inputs": [],
      "payable": false,
      "stateMutability": "nonpayable",
      "type": "constructor"
    },
    {
      "anonymous": false,
      "inputs": [
        {
          "indexed": false,
          "name": "banks",
          "type": "address[]"
        }
      ],
      "name": "BankListInitialized",
      "type": "event"
    },
    {
      "anonymous": false,
      "inputs": [
        {
          "indexed": false,
          "name": "customers",
          "type": "address[]"
        }
      ],
      "name": "CustomerListInitialized",
      "type": "event"
    },
    {
      "anonymous": false,
      "inputs": [
        {
          "indexed": false,
          "name": "Municipalities",
          "type": "address[]"
        }
      ],
      "name": "MunicipalityListInitialized",
      "type": "event"
    },
    {
      "constant": false,
      "inputs": [],
      "name": "createInitialCustomerList",
      "outputs": [],
      "payable": false,
      "stateMutability": "nonpayable",
      "type": "function"
    },
    {
      "constant": false,
      "inputs": [],
      "name": "createInitialMunicipalityList",
      "outputs": [],
      "payable": false,
      "stateMutability": "nonpayable",
      "type": "function"
    }
  ],
  "bytecode": "0x608060405234801561001057600080fd5b5061002861002d640100000000026401000000009004565b61016a565b600061003761015a565b604051809103906000f080158015610053573d6000803e3d6000fd5b5090508073ffffffffffffffffffffffffffffffffffffffff1663d699d62673f17f52151ebef6c7334fad080c5704d77216b7326040518263ffffffff167c0100000000000000000000000000000000000000000000000000000000028152600401808273ffffffffffffffffffffffffffffffffffffffff168152602001807f42616e6b20486120506f616c696d000000000000000000000000000000000000815250602001807f4861204e656765762031312c2054656c20417669760000000000000000000000815250602001915050600060405180830381600087803b15801561013f57600080fd5b505af1158015610153573d6000803e3d6000fd5b5050505050565b60405161057c80610f9683390190565b610e1d806101796000396000f30060806040526004361061004c576000357c0100000000000000000000000000000000000000000000000000000000900463ffffffff1680633b2cd59014610051578063fd9dd3d514610068575b600080fd5b34801561005d57600080fd5b5061006661007f565b005b34801561007457600080fd5b5061007d6101ac565b005b60006100896102d9565b604051809103906000f0801580156100a5573d6000803e3d6000fd5b5090508073ffffffffffffffffffffffffffffffffffffffff16632764641173821aea9a577a9b44299b9c15c88cf3087f3b55446040518263ffffffff167c0100000000000000000000000000000000000000000000000000000000028152600401808273ffffffffffffffffffffffffffffffffffffffff168152602001807f437573746f6d65722049726120456964656c6d616e0000000000000000000000815250602001807f48612047616e696d2c204b7972696174204f6e6f000000000000000000000000815250602001915050600060405180830381600087803b15801561019157600080fd5b505af11580156101a5573d6000803e3d6000fd5b5050505050565b60006101b66102e9565b604051809103906000f0801580156101d2573d6000803e3d6000fd5b5090508073ffffffffffffffffffffffffffffffffffffffff16633caef4aa73c5fdf4076b8f3a5357c5e395ab970b5b54098fef6040518263ffffffff167c0100000000000000000000000000000000000000000000000000000000028152600401808273ffffffffffffffffffffffffffffffffffffffff168152602001807f437573746f6d65722049726120456964656c6d616e0000000000000000000000815250602001807f48612047616e696d2c204b7972696174204f6e6f000000000000000000000000815250602001915050600060405180830381600087803b1580156102be57600080fd5b505af11580156102d2573d6000803e3d6000fd5b5050505050565b60405161057c806102fa83390190565b60405161057c8061087683390190560060806040526000600260006101000a81548160ff02191690831515021790555034801561002b57600080fd5b507febbcb9a274c84457ede2eb413b70c0d7cbd09db7c31a17d1d8e4ca4008c1686b303342604051808473ffffffffffffffffffffffffffffffffffffffff1673ffffffffffffffffffffffffffffffffffffffff1681526020018373ffffffffffffffffffffffffffffffffffffffff1673ffffffffffffffffffffffffffffffffffffffff168152602001828152602001935050505060405180910390a16104a2806100da6000396000f300608060405260043610610099576000357c0100000000000000000000000000000000000000000000000000000000900463ffffffff16806306fdde031461009e57806308db16cb146100d15780630d55748d146101045780630f15f4c01461014357806322f3e2d41461015a57806327646411146101895780633bc5de30146101e857806351b42b001461023557806367bbf31b1461024c575b600080fd5b3480156100aa57600080fd5b506100b361027b565b60405180826000191660001916815260200191505060405180910390f35b3480156100dd57600080fd5b506100e6610281565b60405180826000191660001916815260200191505060405180910390f35b34801561011057600080fd5b5061014160048036038101908080356000191690602001909291908035600019169060200190929190505050610287565b005b34801561014f57600080fd5b506101586102a1565b005b34801561016657600080fd5b5061016f6102be565b604051808215151515815260200191505060405180910390f35b34801561019557600080fd5b506101e6600480360381019080803573ffffffffffffffffffffffffffffffffffffffff169060200190929190803560001916906020019092919080356000191690602001909291905050506102d1565b005b3480156101f457600080fd5b506101fd61042b565b604051808460001916600019168152602001836000191660001916815260200182151515158152602001935050505060405180910390f35b34801561024157600080fd5b5061024a610450565b005b34801561025857600080fd5b5061026161046d565b604051808215151515815260200191505060405180910390f35b60005481565b60015481565b816000816000191690555080600181600019169055505050565b6001600260006101000a81548160ff021916908315150217905550565b600260009054906101000a900460ff1681565b82600260016101000a81548173ffffffffffffffffffffffffffffffffffffffff021916908373ffffffffffffffffffffffffffffffffffffffff160217905550816000816000191690555080600181600019169055506001600260006101000a81548160ff0219169083151502179055507f150a7dbd92865cabeddc944b2763f9de767005229a0f6599a58ba561ba54980982843033426040518086600019166000191681526020018573ffffffffffffffffffffffffffffffffffffffff1673ffffffffffffffffffffffffffffffffffffffff1681526020018473ffffffffffffffffffffffffffffffffffffffff1673ffffffffffffffffffffffffffffffffffffffff1681526020018373ffffffffffffffffffffffffffffffffffffffff1673ffffffffffffffffffffffffffffffffffffffff1681526020018281526020019550505050505060405180910390a1505050565b6000806000805492506001549150600260009054906101000a900460ff169050909192565b6000600260006101000a81548160ff021916908315150217905550565b600060019050905600a165627a7a72305820571b34515744e269a6332bd635a85a0eea9d5932a83c63e93cb491f6f5f406db002960806040526000600260006101000a81548160ff02191690831515021790555034801561002b57600080fd5b507fbe793d62f6a83b23ee9065d137323bb3b333efc5c2777898e55def621c6c5ef2303342604051808473ffffffffffffffffffffffffffffffffffffffff1673ffffffffffffffffffffffffffffffffffffffff1681526020018373ffffffffffffffffffffffffffffffffffffffff1673ffffffffffffffffffffffffffffffffffffffff168152602001828152602001935050505060405180910390a16104a2806100da6000396000f300608060405260043610610099576000357c0100000000000000000000000000000000000000000000000000000000900463ffffffff16806306fdde031461009e57806308db16cb146100d15780630d55748d146101045780630f15f4c01461014357806322f3e2d41461015a5780633bc5de30146101895780633caef4aa146101d657806351b42b001461023557806371c3418e1461024c575b600080fd5b3480156100aa57600080fd5b506100b361027b565b60405180826000191660001916815260200191505060405180910390f35b3480156100dd57600080fd5b506100e6610281565b60405180826000191660001916815260200191505060405180910390f35b34801561011057600080fd5b5061014160048036038101908080356000191690602001909291908035600019169060200190929190505050610287565b005b34801561014f57600080fd5b506101586102a1565b005b34801561016657600080fd5b5061016f6102be565b604051808215151515815260200191505060405180910390f35b34801561019557600080fd5b5061019e6102d1565b604051808460001916600019168152602001836000191660001916815260200182151515158152602001935050505060405180910390f35b3480156101e257600080fd5b50610233600480360381019080803573ffffffffffffffffffffffffffffffffffffffff169060200190929190803560001916906020019092919080356000191690602001909291905050506102f6565b005b34801561024157600080fd5b5061024a610450565b005b34801561025857600080fd5b5061026161046d565b604051808215151515815260200191505060405180910390f35b60005481565b60015481565b816000816000191690555080600181600019169055505050565b6001600260006101000a81548160ff021916908315150217905550565b600260009054906101000a900460ff1681565b6000806000805492506001549150600260009054906101000a900460ff169050909192565b82600260016101000a81548173ffffffffffffffffffffffffffffffffffffffff021916908373ffffffffffffffffffffffffffffffffffffffff160217905550816000816000191690555080600181600019169055506001600260006101000a81548160ff0219169083151502179055507f74040ff263b8f30e5b30fef028fe4bde9a5e28df244ac914a6f5fff0d510d52082843033426040518086600019166000191681526020018573ffffffffffffffffffffffffffffffffffffffff1673ffffffffffffffffffffffffffffffffffffffff1681526020018473ffffffffffffffffffffffffffffffffffffffff1673ffffffffffffffffffffffffffffffffffffffff1681526020018373ffffffffffffffffffffffffffffffffffffffff1673ffffffffffffffffffffffffffffffffffffffff1681526020018281526020019550505050505060405180910390a1505050565b6000600260006101000a81548160ff021916908315150217905550565b600060019050905600a165627a7a72305820221f2bf963cb0c8713cd8fa9fb95658750f30dcbb259d93a75fdde2a7262d2760029a165627a7a72305820080b5563786b80559d326a66aa01437d5b3434629e2399abbaf5d2335063cee4002960806040526000600260006101000a81548160ff02191690831515021790555034801561002b57600080fd5b507f80529267470a8cf238458a8261b192a5f922d8bd71140e39aa41c5bd973336e1303342604051808473ffffffffffffffffffffffffffffffffffffffff1673ffffffffffffffffffffffffffffffffffffffff1681526020018373ffffffffffffffffffffffffffffffffffffffff1673ffffffffffffffffffffffffffffffffffffffff168152602001828152602001935050505060405180910390a16104a2806100da6000396000f300608060405260043610610099576000357c0100000000000000000000000000000000000000000000000000000000900463ffffffff16806306fdde031461009e57806308db16cb146100d15780630d55748d146101045780630f15f4c014610143578063164be8581461015a57806322f3e2d4146101895780633bc5de30146101b857806351b42b0014610205578063d699d6261461021c575b600080fd5b3480156100aa57600080fd5b506100b361027b565b60405180826000191660001916815260200191505060405180910390f35b3480156100dd57600080fd5b506100e6610281565b60405180826000191660001916815260200191505060405180910390f35b34801561011057600080fd5b5061014160048036038101908080356000191690602001909291908035600019169060200190929190505050610287565b005b34801561014f57600080fd5b506101586102a1565b005b34801561016657600080fd5b5061016f6102be565b604051808215151515815260200191505060405180910390f35b34801561019557600080fd5b5061019e6102c7565b604051808215151515815260200191505060405180910390f35b3480156101c457600080fd5b506101cd6102da565b604051808460001916600019168152602001836000191660001916815260200182151515158152602001935050505060405180910390f35b34801561021157600080fd5b5061021a6102ff565b005b34801561022857600080fd5b50610279600480360381019080803573ffffffffffffffffffffffffffffffffffffffff1690602001909291908035600019169060200190929190803560001916906020019092919050505061031c565b005b60005481565b60015481565b816000816000191690555080600181600019169055505050565b6001600260006101000a81548160ff021916908315150217905550565b60006001905090565b600260009054906101000a900460ff1681565b6000806000805492506001549150600260009054906101000a900460ff169050909192565b6000600260006101000a81548160ff021916908315150217905550565b82600260016101000a81548173ffffffffffffffffffffffffffffffffffffffff021916908373ffffffffffffffffffffffffffffffffffffffff160217905550816000816000191690555080600181600019169055506001600260006101000a81548160ff0219169083151502179055507fca0cd9bac30bf47a2e7c87896abf2698f77a692c69197a9750a0a8362fbdea2d82843033426040518086600019166000191681526020018573ffffffffffffffffffffffffffffffffffffffff1673ffffffffffffffffffffffffffffffffffffffff1681526020018473ffffffffffffffffffffffffffffffffffffffff1673ffffffffffffffffffffffffffffffffffffffff1681526020018373ffffffffffffffffffffffffffffffffffffffff1673ffffffffffffffffffffffffffffffffffffffff1681526020018281526020019550505050505060405180910390a15050505600a165627a7a7230582086008f215ae001bd9ef6fdd4e65939f3bf672bda2efbf069ca022fe9a87f0b7e0029",
  "source": "pragma solidity ^0.4.24;\n\nimport \"./Municipality.sol\";\nimport \"./Bank.sol\";\nimport \"./Customer.sol\";\n\ncontract Initializer {\n\n    event BankListInitialized (address[] banks);\n    event CustomerListInitialized (address[] customers);\n    event MunicipalityListInitialized (address [] Municipalities);\n\n    constructor() public{\n\n        createInitialBankList();\n\n    }\n\n\n    function createInitialBankList() internal  { //returns (address[])\n\n        //address[] storage banks = new address[](3);\n        Bank poalimBank = new Bank();\n        poalimBank.populateBankData(0xf17f52151ebef6c7334fad080c5704d77216b732, \"Bank Ha Poalim\", \"Ha Negev 11, Tel Aviv\");\n        //banks[0] = poalimBank;\n\n        //return banks;\n    }\n\n\n    function createInitialCustomerList() public {\n        Customer customer = new Customer();\n        customer.populateCustomerData(0xc5fdf4076b8f3a5357c5e395ab970b5b54098fef, \"Customer Ira Eidelman\", \"Ha Ganim, Kyriat Ono\");\n\n    }\n\n\n    function createInitialMunicipalityList() public {\n        Municipality municipality = new Municipality();\n        municipality.populateMunicipalityData(0x821aea9a577a9b44299b9c15c88cf3087f3b5544, \"Customer Ira Eidelman\", \"Ha Ganim, Kyriat Ono\");\n\n    }\n\n\n}\n",
  "sourcePath": "/Users/iraeidelman/IdeaProjects/ira-blockchain/contracts/Initializer.sol",
  "compiler": {
    "name": "solc",
    "version": "0.4.24+commit.e67f0147.Emscripten.clang"
  },
  "schemaVersion": "2.0.0",
  "updatedAt": "2018-06-14T09:03:40.756Z"
}