{
  "contractName": "Initializer",
  "abi": [
    {
      "inputs": [],
      "payable": false,
      "stateMutability": "nonpayable",
      "type": "constructor"
    },
    {
      "anonymous": false,
      "inputs": [
        {
          "indexed": false,
          "name": "banks",
          "type": "address[]"
        }
      ],
      "name": "BankListInitialized",
      "type": "event"
    },
    {
      "anonymous": false,
      "inputs": [
        {
          "indexed": false,
          "name": "customers",
          "type": "address[]"
        }
      ],
      "name": "CustomerListInitialized",
      "type": "event"
    },
    {
      "anonymous": false,
      "inputs": [
        {
          "indexed": false,
          "name": "Municipalities",
          "type": "address[]"
        }
      ],
      "name": "MunicipalityListInitialized",
      "type": "event"
    },
    {
      "constant": false,
      "inputs": [],
      "name": "createInitialBankList",
      "outputs": [],
      "payable": false,
      "stateMutability": "nonpayable",
      "type": "function"
    },
    {
      "constant": false,
      "inputs": [],
      "name": "createInitialCustomerList",
      "outputs": [],
      "payable": false,
      "stateMutability": "nonpayable",
      "type": "function"
    },
    {
      "constant": false,
      "inputs": [],
      "name": "createInitialMunicipalityList",
      "outputs": [],
      "payable": false,
      "stateMutability": "nonpayable",
      "type": "function"
    }
  ],
  "bytecode": "0x608060405234801561001057600080fd5b5060c68061001f6000396000f3006080604052600436106053576000357c0100000000000000000000000000000000000000000000000000000000900463ffffffff168063162cf8ae1460585780633b2cd59014606c578063fd9dd3d5146080575b600080fd5b348015606357600080fd5b50606a6094565b005b348015607757600080fd5b50607e6096565b005b348015608b57600080fd5b5060926098565b005b565b565b5600a165627a7a72305820a82eb50b15d63ea43419c02e566d126393675a09d3333d140671d1bf36ca57890029",
  "source": "pragma solidity ^0.4.24;\n\n\ncontract Initializer {\n\n    event BankListInitialized (address[] banks);\n    event CustomerListInitialized (address[] customers);\n    event MunicipalityListInitialized (address [] Municipalities);\n\n    constructor() public{\n\n    }\n\n\n    function createInitialBankList() public {\n\n    }\n\n\n    function createInitialCustomerList() public {\n\n    }\n\n\n    function createInitialMunicipalityList() public {\n\n    }\n\n\n}\n",
  "sourcePath": "/Users/iraeidelman/IdeaProjects/ira-blockchain/contracts/Initializer.sol",
  "compiler": {
    "name": "solc",
    "version": "0.4.24+commit.e67f0147.Emscripten.clang"
  },
  "schemaVersion": "2.0.0",
  "updatedAt": "2018-06-07T08:57:05.664Z"
}