{
  "contractName": "Municipality",
  "abi": [
    {
      "constant": true,
      "inputs": [],
      "name": "name",
      "outputs": [
        {
          "name": "",
          "type": "bytes32"
        }
      ],
      "payable": false,
      "stateMutability": "view",
      "type": "function"
    },
    {
      "constant": true,
      "inputs": [],
      "name": "localAddress",
      "outputs": [
        {
          "name": "",
          "type": "bytes32"
        }
      ],
      "payable": false,
      "stateMutability": "view",
      "type": "function"
    },
    {
      "constant": false,
      "inputs": [
        {
          "name": "_name",
          "type": "bytes32"
        },
        {
          "name": "_localAddress",
          "type": "bytes32"
        }
      ],
      "name": "populateData",
      "outputs": [],
      "payable": false,
      "stateMutability": "nonpayable",
      "type": "function"
    },
    {
      "constant": false,
      "inputs": [],
      "name": "activate",
      "outputs": [],
      "payable": false,
      "stateMutability": "nonpayable",
      "type": "function"
    },
    {
      "constant": true,
      "inputs": [],
      "name": "isActive",
      "outputs": [
        {
          "name": "",
          "type": "bool"
        }
      ],
      "payable": false,
      "stateMutability": "view",
      "type": "function"
    },
    {
      "constant": true,
      "inputs": [],
      "name": "getData",
      "outputs": [
        {
          "name": "_name",
          "type": "bytes32"
        },
        {
          "name": "_localAddress",
          "type": "bytes32"
        },
        {
          "name": "_isActive",
          "type": "bool"
        }
      ],
      "payable": false,
      "stateMutability": "view",
      "type": "function"
    },
    {
      "constant": false,
      "inputs": [],
      "name": "deactivate",
      "outputs": [],
      "payable": false,
      "stateMutability": "nonpayable",
      "type": "function"
    },
    {
      "constant": true,
      "inputs": [],
      "name": "isMunicipality",
      "outputs": [
        {
          "name": "_isMunicipality",
          "type": "bool"
        }
      ],
      "payable": false,
      "stateMutability": "pure",
      "type": "function"
    }
  ],
  "bytecode": "0x60806040526000600260006101000a81548160ff02191690831515021790555034801561002b57600080fd5b506102de8061003b6000396000f30060806040526004361061008e576000357c0100000000000000000000000000000000000000000000000000000000900463ffffffff16806306fdde031461009357806308db16cb146100c65780630d55748d146100f95780630f15f4c01461013857806322f3e2d41461014f5780633bc5de301461017e57806351b42b00146101cb57806367bbf31b146101e2575b600080fd5b34801561009f57600080fd5b506100a8610211565b60405180826000191660001916815260200191505060405180910390f35b3480156100d257600080fd5b506100db610217565b60405180826000191660001916815260200191505060405180910390f35b34801561010557600080fd5b506101366004803603810190808035600019169060200190929190803560001916906020019092919050505061021d565b005b34801561014457600080fd5b5061014d610237565b005b34801561015b57600080fd5b50610164610254565b604051808215151515815260200191505060405180910390f35b34801561018a57600080fd5b50610193610267565b604051808460001916600019168152602001836000191660001916815260200182151515158152602001935050505060405180910390f35b3480156101d757600080fd5b506101e061028c565b005b3480156101ee57600080fd5b506101f76102a9565b604051808215151515815260200191505060405180910390f35b60005481565b60015481565b816000816000191690555080600181600019169055505050565b6001600260006101000a81548160ff021916908315150217905550565b600260009054906101000a900460ff1681565b6000806000805492506001549150600260009054906101000a900460ff169050909192565b6000600260006101000a81548160ff021916908315150217905550565b600060019050905600a165627a7a72305820db81b58adc22d410229089c4f28c499e64301be6ca3b24a6837d98cbcd34141c0029",
  "source": "pragma solidity ^0.4.24;\n\nimport \"./ParticipantData.sol\";\n\ncontract Municipality is ParticipantData{\n\n    function isMunicipality() pure public returns (bool _isMunicipality){\n        return true;\n    }\n\n}\n",
  "sourcePath": "/Users/iraeidelman/IdeaProjects/ira-blockchain/contracts/Municipality.sol",
  "compiler": {
    "name": "solc",
    "version": "0.4.24+commit.e67f0147.Emscripten.clang"
  },
  "schemaVersion": "2.0.0",
  "updatedAt": "2018-06-07T08:57:05.662Z"
}