{
  "contractName": "ParticipantData",
  "abi": [
    {
      "constant": true,
      "inputs": [],
      "name": "name",
      "outputs": [
        {
          "name": "",
          "type": "bytes32"
        }
      ],
      "payable": false,
      "stateMutability": "view",
      "type": "function"
    },
    {
      "constant": true,
      "inputs": [],
      "name": "localAddress",
      "outputs": [
        {
          "name": "",
          "type": "bytes32"
        }
      ],
      "payable": false,
      "stateMutability": "view",
      "type": "function"
    },
    {
      "constant": true,
      "inputs": [],
      "name": "isActive",
      "outputs": [
        {
          "name": "",
          "type": "bool"
        }
      ],
      "payable": false,
      "stateMutability": "view",
      "type": "function"
    },
    {
      "constant": false,
      "inputs": [
        {
          "name": "_name",
          "type": "bytes32"
        },
        {
          "name": "_localAddress",
          "type": "bytes32"
        }
      ],
      "name": "populateData",
      "outputs": [],
      "payable": false,
      "stateMutability": "nonpayable",
      "type": "function"
    },
    {
      "constant": true,
      "inputs": [],
      "name": "getData",
      "outputs": [
        {
          "name": "_name",
          "type": "bytes32"
        },
        {
          "name": "_localAddress",
          "type": "bytes32"
        },
        {
          "name": "_isActive",
          "type": "bool"
        }
      ],
      "payable": false,
      "stateMutability": "view",
      "type": "function"
    },
    {
      "constant": false,
      "inputs": [],
      "name": "deactivate",
      "outputs": [],
      "payable": false,
      "stateMutability": "nonpayable",
      "type": "function"
    },
    {
      "constant": false,
      "inputs": [],
      "name": "activate",
      "outputs": [],
      "payable": false,
      "stateMutability": "nonpayable",
      "type": "function"
    }
  ],
  "bytecode": "0x60806040526000600260006101000a81548160ff02191690831515021790555034801561002b57600080fd5b5061029b8061003b6000396000f300608060405260043610610083576000357c0100000000000000000000000000000000000000000000000000000000900463ffffffff16806306fdde031461008857806308db16cb146100bb5780630d55748d146100ee5780630f15f4c01461012d57806322f3e2d4146101445780633bc5de301461017357806351b42b00146101c0575b600080fd5b34801561009457600080fd5b5061009d6101d7565b60405180826000191660001916815260200191505060405180910390f35b3480156100c757600080fd5b506100d06101dd565b60405180826000191660001916815260200191505060405180910390f35b3480156100fa57600080fd5b5061012b600480360381019080803560001916906020019092919080356000191690602001909291905050506101e3565b005b34801561013957600080fd5b506101426101fd565b005b34801561015057600080fd5b5061015961021a565b604051808215151515815260200191505060405180910390f35b34801561017f57600080fd5b5061018861022d565b604051808460001916600019168152602001836000191660001916815260200182151515158152602001935050505060405180910390f35b3480156101cc57600080fd5b506101d5610252565b005b60005481565b60015481565b816000816000191690555080600181600019169055505050565b6001600260006101000a81548160ff021916908315150217905550565b600260009054906101000a900460ff1681565b6000806000805492506001549150600260009054906101000a900460ff169050909192565b6000600260006101000a81548160ff0219169083151502179055505600a165627a7a72305820075ae16bf571f5ee1c3662cb2af3c8effb9773998b91f1a0b5adeab9b39f25c70029",
  "source": "pragma solidity ^0.4.24;\n\n\ncontract ParticipantData {\n\n    bytes32 public name;\n    bytes32 public localAddress;\n    bool public isActive = false;\n\n    function populateData (bytes32 _name, bytes32 _localAddress) public {\n        name = _name;\n        localAddress = _localAddress;\n    }\n\n\n    function getData() public view returns(bytes32 _name, bytes32 _localAddress, bool _isActive){\n        _name = name;\n        _localAddress = localAddress;\n        _isActive = isActive;\n    }\n\n    function deactivate() public {\n        isActive = false;\n    }\n\n    function activate() public {\n        isActive = true;\n    }\n}",
  "sourcePath": "/Users/iraeidelman/IdeaProjects/ira-blockchain/contracts/ParticipantData.sol",
  "compiler": {
    "name": "solc",
    "version": "0.4.24+commit.e67f0147.Emscripten.clang"
  },
  "schemaVersion": "2.0.0",
  "updatedAt": "2018-06-12T14:48:09.188Z"
}