{
  "contractName": "RoleUtils",
  "abi": [
    {
      "constant": false,
      "inputs": [
        {
          "name": "_userAddress",
          "type": "address"
        },
        {
          "name": "_userName",
          "type": "bytes32"
        }
      ],
      "name": "addNewEnvironmentMaker",
      "outputs": [],
      "payable": false,
      "stateMutability": "nonpayable",
      "type": "function"
    },
    {
      "constant": false,
      "inputs": [],
      "name": "renounceOwnership",
      "outputs": [],
      "payable": false,
      "stateMutability": "nonpayable",
      "type": "function"
    },
    {
      "constant": true,
      "inputs": [],
      "name": "getOwner",
      "outputs": [
        {
          "name": "",
          "type": "address"
        }
      ],
      "payable": false,
      "stateMutability": "view",
      "type": "function"
    },
    {
      "constant": true,
      "inputs": [],
      "name": "owner",
      "outputs": [
        {
          "name": "",
          "type": "address"
        }
      ],
      "payable": false,
      "stateMutability": "view",
      "type": "function"
    },
    {
      "constant": true,
      "inputs": [
        {
          "name": "",
          "type": "address"
        }
      ],
      "name": "environmentMakerGroupUsers",
      "outputs": [
        {
          "name": "theAddress",
          "type": "address"
        },
        {
          "name": "name",
          "type": "bytes32"
        },
        {
          "name": "isActive",
          "type": "bool"
        }
      ],
      "payable": false,
      "stateMutability": "view",
      "type": "function"
    },
    {
      "constant": false,
      "inputs": [
        {
          "name": "newOwner",
          "type": "address"
        }
      ],
      "name": "transferOwnership",
      "outputs": [],
      "payable": false,
      "stateMutability": "nonpayable",
      "type": "function"
    },
    {
      "anonymous": false,
      "inputs": [
        {
          "indexed": false,
          "name": "theMessage",
          "type": "string"
        },
        {
          "indexed": false,
          "name": "theContractAddress",
          "type": "address"
        },
        {
          "indexed": false,
          "name": "theSenderAddress",
          "type": "address"
        },
        {
          "indexed": false,
          "name": "timestamp",
          "type": "uint256"
        }
      ],
      "name": "GeneralAdminCreated",
      "type": "event"
    },
    {
      "anonymous": false,
      "inputs": [
        {
          "indexed": false,
          "name": "theMessage",
          "type": "string"
        },
        {
          "indexed": false,
          "name": "userName",
          "type": "bytes32"
        },
        {
          "indexed": false,
          "name": "theUserAddress",
          "type": "address"
        },
        {
          "indexed": false,
          "name": "theSenderAddress",
          "type": "address"
        },
        {
          "indexed": false,
          "name": "timestamp",
          "type": "uint256"
        }
      ],
      "name": "NewEnvironmentMakerCreated",
      "type": "event"
    },
    {
      "anonymous": false,
      "inputs": [
        {
          "indexed": true,
          "name": "previousOwner",
          "type": "address"
        }
      ],
      "name": "OwnershipRenounced",
      "type": "event"
    },
    {
      "anonymous": false,
      "inputs": [
        {
          "indexed": true,
          "name": "previousOwner",
          "type": "address"
        },
        {
          "indexed": true,
          "name": "newOwner",
          "type": "address"
        }
      ],
      "name": "OwnershipTransferred",
      "type": "event"
    },
    {
      "constant": true,
      "inputs": [
        {
          "name": "_theAddress",
          "type": "address"
        }
      ],
      "name": "isAdmin",
      "outputs": [
        {
          "name": "_isAdmin",
          "type": "bool"
        }
      ],
      "payable": false,
      "stateMutability": "view",
      "type": "function"
    },
    {
      "constant": true,
      "inputs": [
        {
          "name": "_theAddress",
          "type": "address"
        }
      ],
      "name": "isEnvironmentMaker",
      "outputs": [
        {
          "name": "_isEnvironmentMaker",
          "type": "bool"
        }
      ],
      "payable": false,
      "stateMutability": "view",
      "type": "function"
    }
  ],
  "bytecode": "0x6080604052336000806101000a81548173ffffffffffffffffffffffffffffffffffffffff021916908373ffffffffffffffffffffffffffffffffffffffff16021790555033600160006101000a81548173ffffffffffffffffffffffffffffffffffffffff021916908373ffffffffffffffffffffffffffffffffffffffff1602179055507f66f282e9cbf4a005aac5e80252e8e83ffed399195d4782828a756a289f6ef4db30334260405180806020018573ffffffffffffffffffffffffffffffffffffffff1673ffffffffffffffffffffffffffffffffffffffff1681526020018473ffffffffffffffffffffffffffffffffffffffff1673ffffffffffffffffffffffffffffffffffffffff168152602001838152602001828103825260188152602001807f47656e6572616c2041646d696e2069732063726561746564000000000000000081525060200194505050505060405180910390a1610a798061016c6000396000f30060806040526004361061008e576000357c0100000000000000000000000000000000000000000000000000000000900463ffffffff1680630204b7a01461009357806324d7806c146100e45780633f01dc021461013f578063715018a61461019a578063893d20e8146101b15780638da5cb5b14610208578063d19006a41461025f578063f2fde38b146102fc575b600080fd5b34801561009f57600080fd5b506100e2600480360381019080803573ffffffffffffffffffffffffffffffffffffffff169060200190929190803560001916906020019092919050505061033f565b005b3480156100f057600080fd5b50610125600480360381019080803573ffffffffffffffffffffffffffffffffffffffff169060200190929190505050610672565b604051808215151515815260200191505060405180910390f35b34801561014b57600080fd5b50610180600480360381019080803573ffffffffffffffffffffffffffffffffffffffff1690602001909291905050506106dd565b604051808215151515815260200191505060405180910390f35b3480156101a657600080fd5b506101af610751565b005b3480156101bd57600080fd5b506101c6610853565b604051808273ffffffffffffffffffffffffffffffffffffffff1673ffffffffffffffffffffffffffffffffffffffff16815260200191505060405180910390f35b34801561021457600080fd5b5061021d61087c565b604051808273ffffffffffffffffffffffffffffffffffffffff1673ffffffffffffffffffffffffffffffffffffffff16815260200191505060405180910390f35b34801561026b57600080fd5b506102a0600480360381019080803573ffffffffffffffffffffffffffffffffffffffff1690602001909291905050506108a1565b604051808473ffffffffffffffffffffffffffffffffffffffff1673ffffffffffffffffffffffffffffffffffffffff168152602001836000191660001916815260200182151515158152602001935050505060405180910390f35b34801561030857600080fd5b5061033d600480360381019080803573ffffffffffffffffffffffffffffffffffffffff1690602001909291905050506108f8565b005b6000809054906101000a900473ffffffffffffffffffffffffffffffffffffffff1673ffffffffffffffffffffffffffffffffffffffff163373ffffffffffffffffffffffffffffffffffffffff1614151561039a57600080fd5b6000600260008473ffffffffffffffffffffffffffffffffffffffff1673ffffffffffffffffffffffffffffffffffffffff16815260200190815260200160002050602060ff161480156103f357506000602060ff1614155b1561066e5781600260008473ffffffffffffffffffffffffffffffffffffffff1673ffffffffffffffffffffffffffffffffffffffff16815260200190815260200160002060000160006101000a81548173ffffffffffffffffffffffffffffffffffffffff021916908373ffffffffffffffffffffffffffffffffffffffff16021790555080600260008473ffffffffffffffffffffffffffffffffffffffff1673ffffffffffffffffffffffffffffffffffffffff16815260200190815260200160002060010181600019169055506001600260008473ffffffffffffffffffffffffffffffffffffffff1673ffffffffffffffffffffffffffffffffffffffff16815260200190815260200160002060020160006101000a81548160ff02191690831515021790555060038290806001815401808255809150509060018203906000526020600020016000909192909190916101000a81548173ffffffffffffffffffffffffffffffffffffffff021916908373ffffffffffffffffffffffffffffffffffffffff160217905550507f9431e89712757791f8944926b232df4895ed804e58853598bff24023e9b977f581833342604051808060200186600019166000191681526020018573ffffffffffffffffffffffffffffffffffffffff1673ffffffffffffffffffffffffffffffffffffffff1681526020018473ffffffffffffffffffffffffffffffffffffffff1673ffffffffffffffffffffffffffffffffffffffff1681526020018381526020018281038252601f8152602001807f4e657720456e7669726f6e6d656e744d616b65722069732063726561746564008152506020019550505050505060405180910390a15b5050565b6000600160009054906101000a900473ffffffffffffffffffffffffffffffffffffffff1673ffffffffffffffffffffffffffffffffffffffff168273ffffffffffffffffffffffffffffffffffffffff1614156106d357600190506106d8565b600090505b919050565b60006106e882610672565b15801561073957506000600260008473ffffffffffffffffffffffffffffffffffffffff1673ffffffffffffffffffffffffffffffffffffffff16815260200190815260200160002050602060ff16145b15610747576000905061074c565b600190505b919050565b6000809054906101000a900473ffffffffffffffffffffffffffffffffffffffff1673ffffffffffffffffffffffffffffffffffffffff163373ffffffffffffffffffffffffffffffffffffffff161415156107ac57600080fd5b6000809054906101000a900473ffffffffffffffffffffffffffffffffffffffff1673ffffffffffffffffffffffffffffffffffffffff167ff8df31144d9c2f0f6b59d69b8b98abd5459d07f2742c4df920b25aae33c6482060405160405180910390a260008060006101000a81548173ffffffffffffffffffffffffffffffffffffffff021916908373ffffffffffffffffffffffffffffffffffffffff160217905550565b60008060009054906101000a900473ffffffffffffffffffffffffffffffffffffffff16905090565b6000809054906101000a900473ffffffffffffffffffffffffffffffffffffffff1681565b60026020528060005260406000206000915090508060000160009054906101000a900473ffffffffffffffffffffffffffffffffffffffff16908060010154908060020160009054906101000a900460ff16905083565b6000809054906101000a900473ffffffffffffffffffffffffffffffffffffffff1673ffffffffffffffffffffffffffffffffffffffff163373ffffffffffffffffffffffffffffffffffffffff1614151561095357600080fd5b600073ffffffffffffffffffffffffffffffffffffffff168173ffffffffffffffffffffffffffffffffffffffff161415151561098f57600080fd5b8073ffffffffffffffffffffffffffffffffffffffff166000809054906101000a900473ffffffffffffffffffffffffffffffffffffffff1673ffffffffffffffffffffffffffffffffffffffff167f8be0079c531659141344cd1fd0a4f28419497f9722a3daafe3b4186f6b6457e060405160405180910390a3806000806101000a81548173ffffffffffffffffffffffffffffffffffffffff021916908373ffffffffffffffffffffffffffffffffffffffff160217905550505600a165627a7a72305820ac83ba1532c575596561503bc11ca61972301c62e5bfe1a1c7cd774d418c896e0029",
  "source": "pragma solidity ^0.4.0;\n\nimport \"./UserRolesConfigurator.sol\";\n\ncontract RoleUtils is UserRolesConfigurator{\n\n\n    function isAdmin(address _theAddress) public view returns(bool _isAdmin){\n\n        if (_theAddress == generalAdmin){\n            _isAdmin = true;\n        }else{\n            _isAdmin = false;\n        }\n    }\n\n\n    function isEnvironmentMaker(address _theAddress) public view returns(bool _isEnvironmentMaker){\n\n        if (!isAdmin(_theAddress) && bytes32(environmentMakerGroupUsers[_theAddress].name).length == 0){\n            _isEnvironmentMaker = false;\n        }else{\n            _isEnvironmentMaker = true;\n        }\n    }\n\n\n}\n",
  "sourcePath": "/Users/iraeidelman/IdeaProjects/ira-blockchain/contracts/RoleUtils.sol",
  "compiler": {
    "name": "solc",
    "version": "0.4.24+commit.e67f0147.Emscripten.clang"
  },
  "schemaVersion": "2.0.0",
  "updatedAt": "2018-06-10T15:48:53.293Z"
}