{
  "contractName": "UserRolesConfigurator",
  "abi": [
    {
      "constant": false,
      "inputs": [],
      "name": "renounceOwnership",
      "outputs": [],
      "payable": false,
      "stateMutability": "nonpayable",
      "type": "function"
    },
    {
      "constant": true,
      "inputs": [],
      "name": "getOwner",
      "outputs": [
        {
          "name": "",
          "type": "address"
        }
      ],
      "payable": false,
      "stateMutability": "view",
      "type": "function"
    },
    {
      "constant": true,
      "inputs": [],
      "name": "owner",
      "outputs": [
        {
          "name": "",
          "type": "address"
        }
      ],
      "payable": false,
      "stateMutability": "view",
      "type": "function"
    },
    {
      "constant": true,
      "inputs": [
        {
          "name": "",
          "type": "address"
        }
      ],
      "name": "environmentMakerGroupUsers",
      "outputs": [
        {
          "name": "theAddress",
          "type": "address"
        },
        {
          "name": "name",
          "type": "bytes32"
        },
        {
          "name": "isActive",
          "type": "bool"
        }
      ],
      "payable": false,
      "stateMutability": "view",
      "type": "function"
    },
    {
      "constant": false,
      "inputs": [
        {
          "name": "newOwner",
          "type": "address"
        }
      ],
      "name": "transferOwnership",
      "outputs": [],
      "payable": false,
      "stateMutability": "nonpayable",
      "type": "function"
    },
    {
      "inputs": [],
      "payable": false,
      "stateMutability": "nonpayable",
      "type": "constructor"
    },
    {
      "anonymous": false,
      "inputs": [
        {
          "indexed": false,
          "name": "theMessage",
          "type": "string"
        },
        {
          "indexed": false,
          "name": "theAccount",
          "type": "address"
        },
        {
          "indexed": false,
          "name": "theContractAddress",
          "type": "address"
        },
        {
          "indexed": false,
          "name": "theSenderAddress",
          "type": "address"
        },
        {
          "indexed": false,
          "name": "timestamp",
          "type": "uint256"
        }
      ],
      "name": "GeneralAdminCreated",
      "type": "event"
    },
    {
      "anonymous": false,
      "inputs": [
        {
          "indexed": false,
          "name": "theMessage",
          "type": "string"
        },
        {
          "indexed": false,
          "name": "userName",
          "type": "bytes32"
        },
        {
          "indexed": false,
          "name": "theUserAddress",
          "type": "address"
        },
        {
          "indexed": false,
          "name": "theSenderAddress",
          "type": "address"
        },
        {
          "indexed": false,
          "name": "timestamp",
          "type": "uint256"
        }
      ],
      "name": "NewEnvironmentMakerCreated",
      "type": "event"
    },
    {
      "anonymous": false,
      "inputs": [
        {
          "indexed": true,
          "name": "previousOwner",
          "type": "address"
        }
      ],
      "name": "OwnershipRenounced",
      "type": "event"
    },
    {
      "anonymous": false,
      "inputs": [
        {
          "indexed": true,
          "name": "previousOwner",
          "type": "address"
        },
        {
          "indexed": true,
          "name": "newOwner",
          "type": "address"
        }
      ],
      "name": "OwnershipTransferred",
      "type": "event"
    },
    {
      "constant": false,
      "inputs": [
        {
          "name": "_userAddress",
          "type": "address"
        },
        {
          "name": "_userName",
          "type": "bytes32"
        }
      ],
      "name": "addNewEnvironmentMaker",
      "outputs": [],
      "payable": false,
      "stateMutability": "nonpayable",
      "type": "function"
    }
  ],
  "bytecode": "0x608060405234801561001057600080fd5b50336000806101000a81548173ffffffffffffffffffffffffffffffffffffffff021916908373ffffffffffffffffffffffffffffffffffffffff160217905550735aeda56215b167893e80b4fe645ba6d5bab767de600160006101000a81548173ffffffffffffffffffffffffffffffffffffffff021916908373ffffffffffffffffffffffffffffffffffffffff1602179055507f8da7dad1750466ce56ebbecd555c89e4b38716f278faf16ce1951eadd67d7d7d600160009054906101000a900473ffffffffffffffffffffffffffffffffffffffff1630334260405180806020018673ffffffffffffffffffffffffffffffffffffffff1673ffffffffffffffffffffffffffffffffffffffff1681526020018573ffffffffffffffffffffffffffffffffffffffff1673ffffffffffffffffffffffffffffffffffffffff1681526020018473ffffffffffffffffffffffffffffffffffffffff1673ffffffffffffffffffffffffffffffffffffffff168152602001838152602001828103825260188152602001807f47656e6572616c2041646d696e206973206372656174656400000000000000008152506020019550505050505060405180910390a16108ce806101e36000396000f300608060405260043610610078576000357c0100000000000000000000000000000000000000000000000000000000900463ffffffff1680630204b7a01461007d578063715018a6146100ce578063893d20e8146100e55780638da5cb5b1461013c578063d19006a414610193578063f2fde38b14610230575b600080fd5b34801561008957600080fd5b506100cc600480360381019080803573ffffffffffffffffffffffffffffffffffffffff1690602001909291908035600019169060200190929190505050610273565b005b3480156100da57600080fd5b506100e36105a6565b005b3480156100f157600080fd5b506100fa6106a8565b604051808273ffffffffffffffffffffffffffffffffffffffff1673ffffffffffffffffffffffffffffffffffffffff16815260200191505060405180910390f35b34801561014857600080fd5b506101516106d1565b604051808273ffffffffffffffffffffffffffffffffffffffff1673ffffffffffffffffffffffffffffffffffffffff16815260200191505060405180910390f35b34801561019f57600080fd5b506101d4600480360381019080803573ffffffffffffffffffffffffffffffffffffffff1690602001909291905050506106f6565b604051808473ffffffffffffffffffffffffffffffffffffffff1673ffffffffffffffffffffffffffffffffffffffff168152602001836000191660001916815260200182151515158152602001935050505060405180910390f35b34801561023c57600080fd5b50610271600480360381019080803573ffffffffffffffffffffffffffffffffffffffff16906020019092919050505061074d565b005b6000809054906101000a900473ffffffffffffffffffffffffffffffffffffffff1673ffffffffffffffffffffffffffffffffffffffff163373ffffffffffffffffffffffffffffffffffffffff161415156102ce57600080fd5b6000600260008473ffffffffffffffffffffffffffffffffffffffff1673ffffffffffffffffffffffffffffffffffffffff16815260200190815260200160002050602060ff1614801561032757506000602060ff1614155b156105a25781600260008473ffffffffffffffffffffffffffffffffffffffff1673ffffffffffffffffffffffffffffffffffffffff16815260200190815260200160002060000160006101000a81548173ffffffffffffffffffffffffffffffffffffffff021916908373ffffffffffffffffffffffffffffffffffffffff16021790555080600260008473ffffffffffffffffffffffffffffffffffffffff1673ffffffffffffffffffffffffffffffffffffffff16815260200190815260200160002060010181600019169055506001600260008473ffffffffffffffffffffffffffffffffffffffff1673ffffffffffffffffffffffffffffffffffffffff16815260200190815260200160002060020160006101000a81548160ff02191690831515021790555060038290806001815401808255809150509060018203906000526020600020016000909192909190916101000a81548173ffffffffffffffffffffffffffffffffffffffff021916908373ffffffffffffffffffffffffffffffffffffffff160217905550507f9431e89712757791f8944926b232df4895ed804e58853598bff24023e9b977f581833342604051808060200186600019166000191681526020018573ffffffffffffffffffffffffffffffffffffffff1673ffffffffffffffffffffffffffffffffffffffff1681526020018473ffffffffffffffffffffffffffffffffffffffff1673ffffffffffffffffffffffffffffffffffffffff1681526020018381526020018281038252601f8152602001807f4e657720456e7669726f6e6d656e744d616b65722069732063726561746564008152506020019550505050505060405180910390a15b5050565b6000809054906101000a900473ffffffffffffffffffffffffffffffffffffffff1673ffffffffffffffffffffffffffffffffffffffff163373ffffffffffffffffffffffffffffffffffffffff1614151561060157600080fd5b6000809054906101000a900473ffffffffffffffffffffffffffffffffffffffff1673ffffffffffffffffffffffffffffffffffffffff167ff8df31144d9c2f0f6b59d69b8b98abd5459d07f2742c4df920b25aae33c6482060405160405180910390a260008060006101000a81548173ffffffffffffffffffffffffffffffffffffffff021916908373ffffffffffffffffffffffffffffffffffffffff160217905550565b60008060009054906101000a900473ffffffffffffffffffffffffffffffffffffffff16905090565b6000809054906101000a900473ffffffffffffffffffffffffffffffffffffffff1681565b60026020528060005260406000206000915090508060000160009054906101000a900473ffffffffffffffffffffffffffffffffffffffff16908060010154908060020160009054906101000a900460ff16905083565b6000809054906101000a900473ffffffffffffffffffffffffffffffffffffffff1673ffffffffffffffffffffffffffffffffffffffff163373ffffffffffffffffffffffffffffffffffffffff161415156107a857600080fd5b600073ffffffffffffffffffffffffffffffffffffffff168173ffffffffffffffffffffffffffffffffffffffff16141515156107e457600080fd5b8073ffffffffffffffffffffffffffffffffffffffff166000809054906101000a900473ffffffffffffffffffffffffffffffffffffffff1673ffffffffffffffffffffffffffffffffffffffff167f8be0079c531659141344cd1fd0a4f28419497f9722a3daafe3b4186f6b6457e060405160405180910390a3806000806101000a81548173ffffffffffffffffffffffffffffffffffffffff021916908373ffffffffffffffffffffffffffffffffffffffff160217905550505600a165627a7a72305820c039953cd95158f5e314a2895c2b5760f539c3bc386c15ad50a4a19e55fd87310029",
  "source": "pragma solidity ^0.4.24;\n\nimport \"./Ownable.sol\";\n\ncontract UserRolesConfigurator  is Ownable{\n\n    address internal generalAdmin;\n\n    struct User {\n        address theAddress;\n        bytes32 name;\n        bool isActive;\n    }\n\n    event GeneralAdminCreated(string theMessage, address theAccount, address theContractAddress, address theSenderAddress, uint timestamp);\n\n    constructor () public {\n        generalAdmin = 0x5aeda56215b167893e80b4fe645ba6d5bab767de;\n        emit GeneralAdminCreated(\"General Admin is created\", generalAdmin, this, msg.sender, now);\n    }\n\n\n    mapping (address=>User) public environmentMakerGroupUsers;\n    address[] usersByAddress; // this is like a whitepages of all users, by ethereum address\n\n\n    event NewEnvironmentMakerCreated(string theMessage, bytes32 userName, address theUserAddress, address theSenderAddress, uint timestamp);\n\n    function addNewEnvironmentMaker(address _userAddress , bytes32 _userName) onlyOwner public {\n\n        // the user is not exist yet and the name not empty\n        if(bytes32(environmentMakerGroupUsers[_userAddress].name).length == 0 && bytes32(_userName).length != 0){\n\n            environmentMakerGroupUsers[_userAddress].theAddress = _userAddress;\n            environmentMakerGroupUsers[_userAddress].name = _userName;\n            environmentMakerGroupUsers[_userAddress].isActive = true;\n\n            usersByAddress.push(_userAddress);\n            emit NewEnvironmentMakerCreated(\"New EnvironmentMaker is created\", _userName, _userAddress, msg.sender, now);\n        }\n    }\n\n}\n",
  "sourcePath": "/Users/iraeidelman/IdeaProjects/ira-blockchain/contracts/UserRolesConfigurator.sol",
  "compiler": {
    "name": "solc",
    "version": "0.4.24+commit.e67f0147.Emscripten.clang"
  },
  "schemaVersion": "2.0.0",
  "updatedAt": "2018-06-12T14:48:09.208Z"
}